:100000000C94A8010C94300F0C945D0F0C94A12457
:100010000C94D0010C94D0010C94D0010C94D71006
:100020000C94D0010C94D0010C94D0010C94D0010C
:100030000C94D0010C94D0010C94D0010C94D001FC
:100040000C940D0E0C94D0010C94FE150C944516D6
:100050000C94D0010C94D0010C94D0010C94D001DC
:100060000C94D0010C94D001096765746465763AEC
:10007000090973686F777320746865206465766911
:1000800063652049440A00097365746465763A091A
:1000900009736574732074686520646576696365A7
:1000A000204944202830202E2E20313020636861E2
:1000B0007273290A0009676574666565643A097395
:1000C000686F77732074686520434F534D206665D1
:1000D00065642049440A0009736574666565643A7D
:1000E00009736574732074686520434F534D20660F
:1000F0006565642049440A00097365746D61633A5B
:10010000090973657473207468652063686962699E
:1001100020776972656C657373204D41432061647B
:1001200064726573732830202E2E20464646462979
:100130002E0A00096765746D61633A090973686F77
:1001400077732074686520636869626920776972D3
:10015000656C657373204D414320616464726573FF
:10016000732E0A005573652074686520666F6C6C89
:100170006F77696E6720636F6D6D616E64733A0AA5
:10018000004552524F52202D20546F6F206D616EEA
:1001900079206368617261637465727320696E208F
:1001A0004465766963652049442E204D757374203B
:1001B000626520756E6465722031302063686172FB
:1001C0006163746572732E0A004465766963652005
:1001D00049442073657420746F2025730A004465B8
:1001E000766963655F49443A0925730A0046697276
:1001F0006D776172655F7665723A0925730A00460C
:100200006565642049442073657420746F202575EA
:100210000A00466565645F49443A0925750A004D40
:1002200041435F6164647265737320736574207405
:100230006F20253034580A004D41435F6164647279
:100240006573733A09253034580A00000000002411
:100250000027002A0000000000250028002B0000D5
:100260000000002300260029000404040404040400
:100270000402020202020203030303030301020455
:100280000810204080010204081020010204081018
:100290002000000007000201000003040600000027
:1002A0000000000000024255464645522046554C8B
:1002B0004C2E20544F5353494E4720494E434F4DE7
:1002C000494E4720444154410A0043484942493A73
:1002D00020436F6D6D616E64206E6F742072656374
:1002E0006F676E697A65642E002A2A2A2A2A2A2ACA
:1002F0002A2A2A2A2A2A2A2A204348494249202AE5
:100300002A2A2A2A2A2A2A2A2A2A2A2A2A2A2A2A4D
:100310002A2A004348494249203E3E200052414497
:10032000494F204E4F5420494E495449414C495A57
:1003300045442050524F5045524C590A0000100974
:100340002610A8174018291A061D7C2754290909C8
:1003500011241FBECFEFD8E0DEBFCDBF13E0A0E079
:10036000B1E0E8EDF4E602C005900D92A03EB107C1
:10037000D9F716E0A0EEB3E001C01D92AC36B1078C
:10038000E1F713E0CEE4D3E004C02297FE010E941F
:100390005B32CE33D107C9F70E94EE150C942C05C1
:1003A0000C940000CF93DF93BC018230910510F4D0
:1003B00062E070E0A0916206B0916306ED0140E05A
:1003C00050E0E0E0F0E021C088819981861797072E
:1003D00069F48A819B81309719F09383828304C0EA
:1003E0009093630680936206FE0133C06817790715
:1003F00038F44115510519F08417950708F4AC013C
:10040000FE018A819B819C01E9012097E9F6411553
:100410005105A1F1CA01861B970B049708F4BA0194
:10042000E0E0F0E029C08D919C9111978417950729
:10043000F1F46417750779F4ED018A819B81309797
:1004400019F09383828304C09093630680936206BD
:10045000FD0132964CC0CA01861B970BFD01E80FC7
:10046000F91F6193719302978D939C9340C0FD0196
:10047000828193819C01D9011097A9F68091600631
:1004800090916106892B41F48091680390916903F2
:10049000909361068093600640916A0350916B03CC
:1004A0004115510541F44DB75EB7809166039091B7
:1004B0006703481B590B2091600630916106CA0101
:1004C000821B930B8617970780F0AB014E5F5F4F3F
:1004D0008417950750F0420F531F509361064093C5
:1004E0006006F9016193719302C0E0E0F0E0CF0192
:1004F000DF91CF910895CF93DF93009709F44EC019
:10050000EC0122971B821A82A0916206B0916306C9
:10051000109701F140E050E0AC17BD0700F1BB833C
:10052000AA83FE0121913191E20FF31FAE17BF079D
:1005300071F48D919C911197280F391F2E5F3F4FB9
:1005400039832883FD01828193819B838A834115AE
:10055000510569F4D0936306C09362061FC0FD0184
:1005600082819381AD01009711F0DC01D5CFFA01B2
:10057000D383C28321913191E20FF31FCE17DF079E
:1005800069F488819981280F391F2E5F3F4FFA0146
:10059000318320838A819B8193838283DF91CF91F2
:1005A0000895A0E0B0E0E7EDF2E00C942A32EC010F
:1005B000A880B980CA80DB80A114B104C104D10431
:1005C00041F484E2A82E89EDB82E8BE5C82E87E091
:1005D000D82EC601B5012DE133EF41E050E00E9475
:1005E000073227EA31E440E050E00E94C6317B0147
:1005F0008C01C601B5012DE133EF41E050E00E94CE
:100600000732CA01B9012CEE34EF4FEF5FEF0E94C1
:10061000C6316E0D7F1D801F911F97FF04C0615072
:10062000704080409048688379838A839B839B01D4
:10063000AC015F77B901CA01CDB7DEB7EAE00C942F
:1006400046320E94D10208958CE693E00E94D102C6
:10065000089560936C0370936D0380936E03909381
:100660006F030895A0E0B0E0E8E3F3E00C942432D7
:100670006C01009729F4CB010E94D2016C01BDC02E
:100680008EEF882E8FEF982E8C0C9D1C8601060F06
:10069000171F0815190508F4AEC0F401A081B18137
:1006A000A617B707B8F0A530B10508F4A6C0CD016C
:1006B00004978617970708F4A0C01297A61BB70BDC
:1006C000F801A193B193D4016D937C93CF010E9463
:1006D0007B0293C07B01EA1AFB0AEEEFFFEFEE0EFE
:1006E000FF1E36016A0E7B1EC0916206D091630622
:1006F000AA24BB244424552446C0C615D705C1F5F9
:10070000488159814E155F0598F1CA0104978E15ED
:100710009F05A0F41296A40FB51FF401B183A08326
:100720002A813B814114510421F0F2013383228359
:1007300064C030936306209362065FC08A819B8108
:10074000F80193838283425050404E195F095183D0
:1007500040834114510421F0F2011383028304C049
:100760001093630600936206D4016D937C9345C099
:1007700088819981A816B90608F45C012E018A8146
:100780009B819C01E901209709F0B7CF8091600619
:100790009091610686159705E9F4A616B706D0F480
:1007A00020916A0330916B032115310541F42DB777
:1007B0003EB78091660390916703281B390B02179F
:1007C0001307C8F41093610600936006F401718367
:1007D000608313C0CB010E94D201EC01009759F055
:1007E000D4014D915C91B6010E944805C6010E945A
:1007F0007B026E0102C0CC24DD24C601CDB7DEB77A
:10080000E0E10C9440322F923F925F926F927F9280
:100810008F929F92AF92BF92CF92DF92EF92FF9210
:100820000F931F93CF93DF93EC011B016A016115B6
:10083000710519F0FB0191838083C114D10449F043
:10084000C6010297839728F020E030E040E050E0B6
:10085000EFC0A9908A2D90E00E943930892BC9F70A
:10086000FDE2AF1621F4A9905524539405C08BE204
:10087000A81609F4A9905524C114D10421F0E0E18F
:10088000CE16D104B9F4F0E3AF1669F48881883745
:1008900011F0883541F4A980229682E0582A20E19F
:1008A000C22ED12C07C0C114D10421F4E0E3AE164E
:1008B000E9F428C0F2E0CF16D10491F088E0C81620
:1008C000D10419F1EAE0CE16D10499F0F0E1CF1687
:1008D000D10409F5E12CF12C012D98E0192F2AC043
:1008E000E12CF12C012D80E4182F24C0BAE0CB2E8E
:1008F000D12CACECEA2EACECFA2EACEC0A2FACE02E
:100900001A2F18C0F8E0CF2ED12CE12CF12C012D9C
:10091000E0E11E2F0FC09601442737FD4095542F6C
:1009200060E070E080E090E80E94E531C901DA0102
:100930007C018D0120E030E040E050E060E03601D5
:10094000882477FC8094982C70EDB72EBA0C89E03F
:100950008B1570F48A2D81548A3118F499ECB92ED4
:1009600006C08A2D81568A3140F589EAB82EBA0C24
:100970008B2D90E08C159D0504F56F3FE1F0E2169C
:10098000F30604071507B0F0CA01B901A4019301E9
:100990000E94C6319B01AC012B0D311D411D511D23
:1009A0002130E0E03E07E0E04E07E0E85E0710F4AB
:1009B00061E001C06FEFA990C7CF2114310471F03D
:1009C000662329F02197F101D183C08307C051FE2E
:1009D00019C02297F101D183C08314C067FF12C0F0
:1009E00050FC05C02FEF3FEF4FEF5FE704C020E062
:1009F00030E040E050E882E290E090936B06809314
:100A00006A0616C050FE08C0509540953095219555
:100A10003F4F4F4F5F4F0CC057FF0AC082E290E03C
:100A200090936B0680936A062FEF3FEF4FEF5FE7DF
:100A3000B901CA01DF91CF911F910F91FF90EF9003
:100A4000DF90CF90BF90AF909F908F907F906F90EE
:100A50005F903F902F900895F8940C945F32FB01C3
:100A6000DC0105900D920020E1F7089540EE53E07F
:100A70000E9461050895FB01DC0104C08D91019085
:100A8000801921F441505040C8F7881B990B0895F4
:100A9000FB01DC0102C001900D9241505040D8F79B
:100AA0000895FB01DC018D91019080190110D9F3AB
:100AB000990B0895FB01DC0101900D920020E1F7F4
:100AC0000895009731F4DA018D919C91009709F413
:100AD0000EC0DC01FB013D912191222319F0321758
:100AE000C9F3FACF332331F4DA011D921C9288271F
:100AF000992708951197AF93BF93FB013D912191E1
:100B0000321771F4332321F488279927119702C0F3
:100B10001E921196FA01A193B0839F918F9108952F
:100B2000222369F7EACFA0E0B0E0E9E9F5E00C9410
:100B30002C327C01EB018A01690109C0CE012196AA
:100B4000F6010995F70181937F01015010400115CD
:100B50001105A1F7CDB7DEB7E8E00C944832A0E06C
:100B6000B0E0E5EBF5E00C942C32EC017B018A015E
:100B7000690109C0CE012196F70161917F01F6015B
:100B800009950150104001151105A1F7CDB7DEB749
:100B9000E8E00C944832FA01CF93FF93EF932230B0
:100BA000CCF02532BCF4C22F2C2F332744275527F5
:100BB000FF93EF930E94E531EF91FF91605D6A33FF
:100BC0000CF0695D6193B901CA01605070408040CA
:100BD000904051F710828F919F91CF910C941808FB
:100BE000A0E0B0E0E6EFF5E00C943232FE0135967D
:100BF000619171918091660690916706AF010E94A4
:100C00002C062096E2E00C944E32A0E0B0E0EBE03F
:100C1000F6E00C9432329E012B5F3F4FF901619157
:100C200071919F01A0916606B0916706FD018381D5
:100C3000886083838091660690916706A9010E946F
:100C40002C06E0916606F09167062381277F2383B7
:100C50002096E2E00C944E32ABE0B0E0E2E3F6E046
:100C60000C9422323C012B016A01FC01178216828E
:100C7000838181FD03C06FEF7FEFBFC19AE0892EB2
:100C80001E010894211C311CF3012381F20123FD74
:100C9000859123FF81912F01882309F4ABC185320F
:100CA00039F423FD859123FF81912F01853229F4A9
:100CB00090E0B3010E942808E7CF982FFF24EE248C
:100CC0009924FFE1FF15B8F0903261F0933281F082
:100CD0009B3231F09D3249F0903369F441E024C0F9
:100CE00052E0F52A84E0F82A28C098E0F92A25C0C5
:100CF000E0E1FE2A22C0F7FC29C0892F80538A3008
:100D000070F4F6FE05C0989C902C1124980E15C026
:100D1000E89CE02C1124E80EF0E2FF2A0EC09E327F
:100D200029F4F6FC67C140E4F42A07C09C3619F4A4
:100D300050E8F52A02C0983649F4F20123FD959156
:100D400023FF91912F01992309F0BBCF892F85545F
:100D5000833018F08052833038F444E050E0C40E01
:100D6000D51E5FE359830FC0933531F1933621F0DF
:100D7000933709F056C00BC0F6018081898342E0A9
:100D800050E0C40ED51E510101E010E012C0F60182
:100D9000A080B180F6FC03C06FEF7FEF02C0692D29
:100DA00070E042E050E0C40ED51EC5010E940D085F
:100DB0008C015FE7F52214C0F601A080B180F6FC3B
:100DC00003C06FEF7FEF02C0692D70E042E050E09A
:100DD000C40ED51EC5010E9402088C0150E8F52AF8
:100DE000F3FE07C01AC080E290E0B3010E94280819
:100DF000EA948E2D90E008171907A8F30EC0F501AC
:100E0000F7FC8591F7FE81915F0190E0B3010E94AC
:100E10002808E110EA94015010400115110579F7F6
:100E2000E6C0943611F0993669F5F7FE08C0F60170
:100E3000208131814281538184E090E00AC0F60133
:100E4000808191819C01442737FD4095542F82E099
:100E500090E0C80ED91E9FE6F92257FF09C05095B1
:100E60004095309521953F4F4F4F5F4FE0E8FE2A68
:100E7000CA01B901A1012AE030E00E945408B82E4D
:100E8000B2183CC0953729F41F2D1F7E2AE030E0B0
:100E900019C01F2D197F983589F09F3631F0903792
:100EA00039F0983709F0A6C004C028E030E00AC045
:100EB000106114FD146020E130E004C014FD1660E0
:100EC00020E132E017FF08C0F60160817181828164
:100ED000938144E050E008C0F60180819181BC011B
:100EE00080E090E042E050E0C40ED51EA1010E94D7
:100EF0005408B82EB2188FE7F82EF122F6FE0BC078
:100F00005EEFF522B91438F4F4FE07C0F2FC05C018
:100F10008FEEF82202C01B2D01C0192DF4FE0DC06A
:100F2000FE01EB0DF11D8081803319F499EEF92259
:100F300008C01F5FF2FE05C003C08F2D867809F040
:100F40001F5F0F2DF3FC14C0F0FE0FC01E1510F034
:100F50009B2C0BC09B2C9E0C911A1E2D06C080E270
:100F600090E0B3010E9428081F5F1E15C0F304C063
:100F70001E1510F4E11A01C0EE2404FF0FC080E337
:100F800090E0B3010E94280802FF1DC001FD03C0CC
:100F900088E790E00EC088E590E00BC0802F86784F
:100FA00091F001FF02C08BE201C080E2F7FC8DE20C
:100FB00090E0B3010E94280806C080E390E0B301EE
:100FC0000E9428089A94B914C0F3BA94F101EB0D69
:100FD000F11D808190E0B3010E942808BB20A9F791
:100FE00006C080E290E0B3010E942808EA94EE2057
:100FF000C1F74ACEF30166817781CB012B96E2E1FE
:101000000C943E32FC010590615070400110D8F7FD
:10101000809590958E0F9F1F0895FC016150704040
:1010200001900110D8F7809590958E0F9F1F08951D
:10103000DC01FC01672F71917723E1F7329704C03F
:101040007C916D9370836291AE17BF07C8F30895CA
:101050000F931F93CF93DF938C01EB018B8181FF63
:101060001BC082FF0DC02E813F818C819D8128177E
:10107000390764F4E881F9810193F983E88306C0B4
:10108000E885F985802F0995892B31F48E819F8120
:1010900001969F838E8302C00FEF1FEFC801DF917F
:1010A000CF911F910F910895FA01AA27283051F18D
:1010B000203181F1E8946F936E7F6E5F7F4F8F4F89
:1010C0009F4FAF4FB1E03ED0B4E03CD0670F781FE8
:1010D000891F9A1FA11D680F791F8A1F911DA11DCD
:1010E0006A0F711D811D911DA11D20D009F4689406
:1010F0003F912AE0269F11243019305D3193DEF6AE
:10110000CF010895462F4770405D4193B3E00FD063
:10111000C9F7F6CF462F4F70405D4A3318F0495D4E
:1011200031FD4052419302D0A9F7EACFB4E0A69531
:101130009795879577956795BA95C9F70097610553
:10114000710508959B01AC010A2E069457954795A9
:1011500037952795BA95C9F7620F731F841F951F9E
:10116000A01D08959C01F999FECF32BD21BDF89ACA
:1011700080B508959C01F999FECF1FBA32BD21BDFB
:1011800060BD0FB6F894FA9AF99A0FBE089580914F
:101190000B0490910C04019690930C0480930B0423
:1011A00081E080930A0408950F938130910531F511
:1011B0006F5F7F4F61F585E194E060E040E020E003
:1011C00000E00E941A1082EE93E00E94F8178FEE62
:1011D00093E06DEA4BEC22E60DE10E941A1085EFD8
:1011E00093E06AE04BE02CE00DE00E941A108BEFD8
:1011F00093E060E071E00E94331409C0892B39F458
:101200006F5F7F4F21F48BEF93E00E9466140F9184
:10121000089580E090E06FEF7FEF0E94D40808957A
:1012200081E090E06FEF7FEF0E94D408089500D036
:1012300084E691E0EDB7FEB7928381830E940506B4
:1012400083E391E0EDB7FEB7928381830E940506A8
:1012500088EF90E0EDB7FEB7928381830E94050688
:1012600087ED90E0EDB7FEB7928381830E9405067B
:1012700085EB90E0EDB7FEB7928381830E9405066F
:1012800087E890E0EDB7FEB7928381830E94050660
:1012900088E690E0EDB7FEB7928381830E94050651
:1012A0000F900F90089500D000D08EED91E0EDB733
:1012B000FEB79283818381E294E0948383830E94CA
:1012C00005060F900F900F900F90089500D000D05A
:1012D0008DEE91E0EDB7FEB79283818380E893E0D5
:1012E000948383830E9405060F900F900F900F90B8
:1012F000089500D000D000D082E192E0EDB7FEB7B3
:101300009283818380911D0490911E04A0911F04FB
:10131000B091200483839483A583B6830E9405063D
:101320008DB79EB706960FB6F8949EBF0FBE8DBFC1
:10133000089500D000D088E392E0EDB7FEB7928325
:10134000818380911B0490911C04948383830E9469
:1013500005060F900F900F900F90089500D000D0C9
:1013600088E392E0EDB7FEB79283818380911B04FE
:1013700090911C04948383830E94050600D082E12F
:1013800092E0EDB7FEB79283818380911D04909126
:101390001E04A0911F04B091200483839483A5832D
:1013A000B6830E9405060F900F908EED91E0EDB789
:1013B000FEB79283818381E294E0948383830E94C9
:1013C00005060F900F900F900F900E9466090895E8
:1013D0000F931F93FB0162817381FB01DF010D906D
:1013E0000020E9F71197AE1BBF0BAA30B10528F515
:1013F00001E214E09D012F5F3F4FC801A9010E9447
:10140000480580E090E0B8016650704044E250E04A
:101410002AEB38E00E94AF0500D000D089EC91E0C3
:10142000EDB7FEB792838183148303830E94050680
:101430000F900F900F900F900BC000D081E891E0BB
:10144000EDB7FEB7928381830E9405060F900F903F
:101450001F910F910895FB018281938160E070E0FC
:101460004AE050E00E94030460931D0470931E0440
:1014700080931F049093200480E090E06BE174E07F
:1014800044E250E02AEB38E00E94AF0500D000D0E3
:1014900000D08FEF91E0EDB7FEB79283818380910A
:1014A0001D0490911E04A0911F04B0912004838319
:1014B0009483A583B6830E9405068DB79EB70696D2
:1014C0000FB6F8949EBF0FBE8DBF0895FB018281B9
:1014D000938160E070E040E150E00E94030470936B
:1014E0001C0460931B0480E090E06BE174E044E234
:1014F00050E02AEB38E00E94AF0500D000D08FE129
:1015000092E0EDB7FEB79283818380911B049091A6
:101510001C04948383830E9405060F900F900F9004
:101520000F900895AF92BF92CF92DF92EF92FF9209
:101530000F931F93CF93DF93EC017A018B01CB01C3
:10154000BA010E94A6305B016C010E94D2309B015F
:10155000AC01C801B7010E9441302FE632E143E0FF
:101560005AE30E94423020E030E04AE754E40E940F
:1015700060310E94A6307B018C01CE01B601A5012D
:101580000E94BE13CE0161E071E00E94F0138AE078
:10159000E816F1040105110520F4CE0163E071E0C5
:1015A00009C084E6E816F1040105110528F4CE010E
:1015B00066E071E00E94F013CE01B801A7010E941D
:1015C000BE13DF91CF911F910F91FF90EF90DF90AD
:1015D000CF90BF90AF900895EF92FF920F931F931B
:1015E0007B018C010E94610EA8019701261B370B1D
:1015F000480B590BE616F7060807190720F4209543
:10160000309540955095B901CA011F910F91FF90F7
:10161000EF900895AF92BF92CF92DF92EF92FF9238
:101620000F931F93DF93CF9300D000D000D0CDB79E
:10163000DEB75B016C018FEF94E00E949E148FEF88
:1016400094E068E071E00E9491158DE893E09A8340
:1016500089838091F1039091F203A091F303B091FB
:10166000F4038B839C83AD83BE8382EE93E0BE0143
:101670006F5F7F4F40E550E00E943019892B09F4DD
:10168000B3C08FEF94E068E371E00E9491150E946F
:10169000610E60930D0470930E0480930F04909379
:1016A000100410924004C601B5012091110430913C
:1016B000120440911304509114040E9460317B0184
:1016C0008C018BEF93E067E571E00E944D148BEF86
:1016D00093E0B601A5010E94920A8BEF93E06AE5C0
:1016E00071E00E94F0138BEF93E0A701B8010E9414
:1016F000920A8BEF93E06EE571E00E94F0130E9476
:10170000610E28EE33E040E050E00E94E5318BEFBF
:1017100093E0BA01A9010E94BE138FEF94E063E643
:1017200071E00E9491158FEF94E06BEF73E00E94DF
:10173000D7158FEF94E064E971E00E94911582EE75
:1017400093E06AEC71E00E948E1540911D04509167
:101750001E0460911F047091200482EE93E02AE041
:1017600030E00E94501582EE93E069ED71E00E9436
:10177000911582EE93E063EE71E00E94911582EE86
:1017800093E067EF71E00E94911582EE93E06DE0C7
:1017900072E00E948E15609170037091710382EE69
:1017A00093E00E94911582EE93E06FE172E00E9457
:1017B0008E156091FF037091000482EE93E04AE081
:1017C00050E00E945F1582EE93E060E372E00E94B9
:1017D000911582EE93E00E949E1482EE93E06BEFEF
:1017E00073E00E94D71528C0209140042F5F2093FA
:1017F0004004233018F081E080933F0400D000D0F3
:1018000087E492E0EDB7FEB79283818383E090E0B6
:10181000821B9109948383830E94F0050F900F909F
:101820000F900F900E94610E60930D0470930E0450
:1018300080930F049093100426960FB6F894DEBFA1
:101840000FBECDBFCF91DF911F910F91FF90EF9011
:10185000DF90CF90BF90AF90089580913F0481308A
:1018600009F0A8950E940E278CE295E00E94551A77
:1018700080910A04882301F110920A048091780370
:1018800068EE73E020E030E040E050E00E94331169
:1018900080917A0361E00E94C90F64E170E080E00A
:1018A00090E00E946F0E80917A0360E00E94C90F61
:1018B000809178030E94C01060910D0470910E0415
:1018C00080910F04909110040E94EC0A2091020470
:1018D000309103044091040450910504621773078A
:1018E0008407950780F060910B0470910C048827A1
:1018F00077FD8095982F0E94D43010920C0410929E
:101900000B040E940A0B08950F931F93DF93CF934C
:10191000CDB7DEB72C970FB6F894DEBF0FBECDBFA4
:101920008091780361E00E948A0F80917A0361E0E0
:101930000E948A0F85E09EE090934A0480934904B8
:1019400010924C0410924B0482E080934404109255
:101950004E0410924D0481E494E0909367068093C6
:10196000660660E071EE80E090E00E94FC258091C8
:101970007E0361E00E948A0F80917E0361E00E94F5
:10198000C90F80917C0361E00E948A0F80917C03E3
:1019900061E00E94C90F64E170E080E090E00E9485
:1019A0006F0E80917C0360E00E94C90F64E170E0DB
:1019B00080E090E00E946F0E80917C0361E00E94C5
:1019C000C90F82E692E069E979E00E94E82589E69C
:1019D00092E066E67AE00E94E82580E792E069E717
:1019E00079E00E94E82588E792E06BE27AE00E94C5
:1019F000E82580E892E063E579E00E94E82587E841
:101A000092E068EE79E00E94E8258EE892E06EEAC6
:101A100079E00E94E82583E992E067E179E00E949D
:101A2000E8258BE194E060E070E044E250E022EBD6
:101A300038E00E9493051092400410923F0429E27E
:101A400088E190E00FB6F894A895809360000FBEEF
:101A5000209360008CEA9BE8ABEDBBE3809311041C
:101A600090931204A0931304B09314048FEF94E0A6
:101A700068E972E00E9491158FEF94E06DEA72E0E0
:101A80000E9491158091780364EF71E020E030E0CE
:101A900040E050E00E94331164E670E080E090E0A6
:101AA0000E946F0E809178030E94C010809178038D
:101AB0006CED75E020E030E040E050E00E94331132
:101AC00062E370E080E090E00E946F0E8091780306
:101AD0000E94C0108091780364EF71E020E030E054
:101AE00040E050E00E94331164E670E080E090E056
:101AF0000E946F0E809178030E94C01080E090E0F9
:101B000060E070E00E94AE098FEF94E063ED72E058
:101B10000E9491158CE295E062E773E00E94101C30
:101B2000892BF9F48FEF94E06CEE72E00E9491152E
:101B30008DE893E09A8389838091F7039091F8036D
:101B4000A091F903B091FA038B839C83AD83BE838C
:101B50008CE295E062E773E0AE014F5F5F4F0E9459
:101B6000D81B8FEF94E064E173E00E948E158E0124
:101B7000095F1F4FC8016CE275E00E94381A8FEFB1
:101B800094E0B8010E94BE1481E067EC78E043E085
:101B900050E00E940D0F80E69AEEA0E0B0E0809346
:101BA000020490930304A0930404B09305040E94DC
:101BB000610E20910204309103044091040450917D
:101BC0000504260F371F481F591F20930604309322
:101BD00007044093080450930904A8958FEF94E0FC
:101BE0006FE173E00E9491158FEF94E064E971E07A
:101BF0000E9491152C960FB6F894DEBF0FBECDBF94
:101C0000CF91DF911F910F910895682F8FEF94E08E
:101C10000E946F1780E090E008951F920F920FB618
:101C20000F9211242F933F934F935F936F937F9362
:101C30008F939F93AF93BF9320915304309154049B
:101C4000409155045091560470915704DA01C9012E
:101C50000296A11DB11D672F6A5F6D3730F06D5779
:101C6000DA01C9010396A11DB11D60935704809349
:101C7000530490935404A0935504B0935604809158
:101C80004F0490915004A0915104B09152040196D8
:101C9000A11DB11D80934F0490935004A093510453
:101CA000B0935204BF91AF919F918F917F916F91AB
:101CB0005F914F913F912F910F900FBE0F901F900A
:101CC00018958FB7F89420915304309154044091A3
:101CD0005504509156048FBFB901CA0108959B0164
:101CE000AC017FB7F89480914F0490915004A0917B
:101CF0005104B091520466B5A89B05C06F3F19F01E
:101D00000196A11DB11D7FBFBA2FA92F982F88273B
:101D1000860F911DA11DB11D63E0880F991FAA1F99
:101D2000BB1F6A95D1F7BC012DC0FFB7F894809115
:101D30004F0490915004A0915104B0915204E6B523
:101D4000A89B05C0EF3F19F00196A11DB11DFFBF73
:101D5000BA2FA92F982F88278E0F911DA11DB11D75
:101D6000E3E0880F991FAA1FBB1FEA95D1F7861BD6
:101D7000970B885E9340C8F221503040404050405D
:101D800068517C4F211531054105510571F60895C3
:101D9000019739F0019729F0880F991F0197019752
:101DA000F1F70895789484B5826084BD84B581602C
:101DB00084BD85B5826085BD85B5816085BDEEE653
:101DC000F0E0808181608083E1E8F0E01082808132
:101DD00082608083808181608083E0E8F0E08081A0
:101DE00081608083E1EBF0E0808184608083E0EBC0
:101DF000F0E0808181608083EAE7F0E080818460A8
:101E00008083808182608083808181608083808103
:101E1000806880831092C1000895823000F5E82F19
:101E2000F0E0EE0FFF1FE85AFB4F718360838823B9
:101E300019F08130A1F408C0809169008C7F842B57
:101E400080936900E89A089580916900440F551FB6
:101E5000440F551F837F842B80936900E99A08956E
:101E60001F920F920FB60F9211242F933F934F930F
:101E70005F936F937F938F939F93AF93BF93EF93F2
:101E8000FF938091580490915904892B29F0E09197
:101E90005804F09159040995FF91EF91BF91AF91CA
:101EA0009F918F917F916F915F914F913F912F9172
:101EB0000F900FBE0F901F9018951F920F920FB6A4
:101EC0000F9211242F933F934F935F936F937F93C0
:101ED0008F939F93AF93BF93EF93FF9380915A0497
:101EE00090915B04892B29F0E0915A04F0915B04F6
:101EF0000995FF91EF91BF91AF919F918F917F9144
:101F00006F915F914F913F912F910F900FBE0F9066
:101F10001F901895CF93DF93482F50E0CA01835844
:101F20009D4FFC01349147595D4FFA0184918823FC
:101F300069F190E0880F991FFC01E55BFD4FA591C9
:101F4000B491FC01EB5AFD4FC591D491662351F435
:101F50002FB7F8948C91932F909589238C93888137
:101F600089230BC0623061F42FB7F8948C91932FC2
:101F7000909589238C938881832B88832FBF06C0FB
:101F80009FB7F8948C91832B8C939FBFDF91CF9157
:101F90000895482F50E0CA018F569D4FFC012491AF
:101FA000CA0183589D4FFC01949147595D4FFA0136
:101FB0003491332309F43DC0222339F12130A9F0B3
:101FC0002230B1F0233039F0243049F02630A1F02E
:101FD0002730D9F415C0809180008F7703C080919D
:101FE00080008F7D8093800010C084B58F7702C001
:101FF00084B58F7D84BD09C08091B0008F7703C008
:102000008091B0008F7D8093B000E32FF0E0EE0F61
:10201000FF1FEB5AFD4FA591B4912FB7F89466239B
:1020200021F48C919095892302C08C91892B8C93FB
:102030002FBF08950F93FC018DE893E09183808377
:1020400062834383248305830F9108958DE893E091
:1020500090935D0480935C0410925E0410925F0480
:10206000109260041092610408958F929F92AF9233
:10207000BF92CF92DF92EF92FF920F931F93CF9375
:10208000DF934C016B017C01AA24BB24C0E0D0E0AB
:10209000C601F70162814AE050E00E947C158C0184
:1020A000C6016EE20E949614080F191FA00EB11E01
:1020B00021960894E11CF11CC330D10549F7C601F3
:1020C000F40165814AE050E00E947C159501280FDB
:1020D000391FC901DF91CF911F910F91FF90EF90B0
:1020E000DF90CF90BF90AF909F908F9008959C010C
:1020F000FB0180819181A281B381F9018283938365
:10210000A483B583C90108959C01FB018DE893E088
:10211000D9018D939C9380819181A281B381F90132
:1021200082839383A483B5830895FC018DE893E0B3
:1021300091838083128213821482158208958823EA
:1021400029F0813031F08230D1F409C010926E0054
:10215000089580916F008D7F80936F000895809126
:1021600070008D7F8093700081E08093B00080913B
:10217000B100887F84608093B1001092B30008950D
:102180001F93182F80918603811711F09FEF06C0CF
:10219000E5EAF2E094918FEF80938603892F0E9405
:1021A0009F10812F60E00E94C90F1F9108951F9218
:1021B0000F920FB60F9211242F933F934F935F937B
:1021C0006F937F938F939F93AF93BF93EF93FF93FF
:1021D0008091700490917104A0917204B091730485
:1021E0000097A105B10551F1E0917404F0917504D7
:1021F00080819091760489278083809170049091EA
:102200007104A0917204B0917304181619061A068D
:102210001B06C4F48091700490917104A091720423
:10222000B09173040197A109B10980937004909350
:102230007104A0937204B093730404C08091860368
:102240000E94C010FF91EF91BF91AF919F918F912C
:102250007F916F915F914F913F912F910F900FBEA2
:102260000F901F9018952F923F925F926F927F92DE
:102270008F929F92AF92BF92CF92DF92EF92FF9296
:102280000F931F93DF93CF9300D000D0CDB7DEB76D
:10229000A82F1B0129833A834B835C83809186039B
:1022A0008A1721F4E5EAF2E0549082C08F3F09F0EA
:1022B000DBC1A0938603E5EAF2E054902FEF5216BB
:1022C00009F4D2C1552041F081E0581629F192E07D
:1022D000591609F06DC046C014BC15BC84B58260A7
:1022E00084BD85B5816085BD2A2F30E0F901E759AD
:1022F000FD4FE491F0E0EE0FFF1FEB5AFD4F85918B
:102300009491909367048093660423583D4FF9019C
:102310008491809368044EC01092800010928100D6
:10232000809181008860809381008091810081602C
:10233000809381002A2F30E0F901E759FD4FE491A5
:10234000F0E0EE0FFF1FEB5AFD4F859194919093B3
:102350006E0480936D0423583D4FF901849180935E
:102360006F0428C01092B0001092B1008091B000AC
:1023700082608093B0008091B10081608093B10051
:102380002A2F30E0F901E759FD4FE491F0E0EE0F1C
:10239000FF1FEB5AFD4F85919491909375048093A4
:1023A000740423583D4FF90184918093760402C050
:1023B00057FC5AC18A2F61E00E948A0F552021F0F4
:1023C000F2E05F1609F0BEC031018824992460E074
:1023D00079E08DE390E0A40193010E940732590156
:1023E0006A01860175010894E108F10801091109E3
:1023F0002FEFE216F1040105110509F008F499C068
:1024000060E271EA87E090E0A40193010E94073244
:1024100079018A010894E108F1080109110982E0B3
:102420005816C1F49FEFE916F1040105110509F0F2
:1024300008F484C068E478EE81E090E0A4019301A0
:102440000E94073279018A010894E108F108010924
:10245000110983E0AFEFEA16F1040105110509F057
:1024600008F468C064E274EF80E090E0A401930196
:102470000E94073279018A010894E108F1080109F4
:102480001109552011F483E01DC0B2E05B1611F074
:1024900084E018C0EFEFEE16F1040105110509F014
:1024A00008F4E0C062E17AE780E090E0A4019301E3
:1024B0000E94073279018A010894E108F1080109B4
:1024C000110985E0FFEFEF16F1040105110591F107
:1024D00088F169E07DE380E090E0A40193010E942F
:1024E000073279018A010894E108F108010911090C
:1024F000552011F086E001C084E02FEFE216F104D0
:1025000001051105B9F0B0F0C601B50120E034E0D5
:1025100040E050E00E94073279018A010894E10806
:10252000F10801091109552011F087E008C085E084
:1025300003C081E0552019F485BD3AC082E0809344
:10254000B10036C05101CC24DD2460E079E08DE398
:1025500090E0A60195010E94073279018A01089452
:10256000E108F1080109110980E0E81680E0F806A9
:1025700081E0080780E0180710F491E010C064E2E1
:1025800074EF80E090E0A60195010E940732790186
:102590008A010894E108F1080109110993E0A1E01A
:1025A0005A1631F480918100887F982B9093810096
:1025B00089819A81AB81BC810097A105B10529F47D
:1025C0008FEF9FEFAFEFBFEF13C0220C331CB101B1
:1025D00080E090E029813A814B815C810E94C63184
:1025E00028EE33E040E050E00E94E531C901DA0115
:1025F000552039F0E1E05E1699F0F2E05F16A1F5A2
:1026000021C0E7BC8093620490936304A0936404A8
:10261000B093650480916E00826080936E0024C048
:10262000F0928900E09288008093690490936A0494
:10263000A0936B04B0936C0480916F0082608093D0
:102640006F0012C0E092B300809370049093710405
:10265000A0937204B09373048091700082608093A1
:10266000700002C084E06BCF0F900F900F900F901E
:10267000CF91DF911F910F91FF90EF90DF90CF905E
:10268000BF90AF909F908F907F906F905F903F90A2
:102690002F900895FC01848195816817790748F48B
:1026A0000190F081E02D309721F0E60FF71F808137
:1026B000089580E008950F931F93CF93DF93EC016B
:1026C0008B016F5F7F4F888199810E943203009751
:1026D00011F480E005C0998388831B830A8381E01D
:1026E000DF91CF911F910F910895CF93DF93EC016C
:1026F00088819981892B29F08A819B818617970788
:1027000060F4CE010E945B13882341F08C819D818F
:10271000892B19F4E881F981108281E0DF91CF9152
:102720000895EF92FF920F931F93CF93DF93EC01E5
:102730007B016C817D81E114F104C1F041155105EB
:1027400099F08A01060F171FB8010E94751388239C
:1027500069F0888199812C813D81820F931FB70197
:102760000E945A051D830C8381E001C080E0DF9147
:10277000CF911F910F91FF90EF900895EF92FF92EC
:102780000F931F93DF93CF93CDB7DEB72B970FB681
:10279000F894DEBF0FBECDBF7C01CB01BA018E0124
:1027A0000F5F1F4FA8012AE030E00E94CB05F8011F
:1027B00001900020E9F73197E01BF10BC701B80148
:1027C000AF010E9491132B960FB6F894DEBF0FBE97
:1027D000CDBFCF91DF911F910F91FF90EF900895A2
:1027E0006115710511F480E00895DB010D90002062
:1027F000E9F71197A61BB70BAD010E94911308953D
:10280000CF93DF93EC0188819981009711F00E94AA
:102810007B02198218821D821C821B821A82DF9120
:10282000CF910895EF92FF920F931F93CF93DF9371
:10283000EC017B018A01BA010E947513882321F4FF
:10284000CE010E94001407C01D830C8388819981EA
:10285000B7010E945A05CE01DF91CF911F910F91D0
:10286000FF90EF900895CF93DF93EC0119821882C7
:102870001B821A821D821C821E826115710551F015
:10288000DB010D900020E9F71197A61BB70BAD01F6
:102890000E941214DF91CF9108950F931F93182F68
:1028A000092F6115710559F0DB010D900020E9F742
:1028B0001197A61BB70BAD010E94121402C00E9413
:1028C0000014812F902F1F910F910895FC0180819A
:1028D00091810E947B020895CF92DF92EF92FF9246
:1028E0000F931F93CF93DF937C016B018A01C0E0AC
:1028F000D0E00FC0D6016D916D01D701ED91FC9133
:102900000190F081E02DC7010995C80FD91F015032
:1029100010400115110571F7CE01DF91CF911F9184
:102920000F91FF90EF90DF90CF900895DC01ED9133
:10293000FC910190F081E02D09950895EF92FF92AE
:102940000F931F938C01DC01ED91FC910190F081BC
:10295000E02D6DE009957C01D801ED91FC9101908D
:10296000F081E02DC8016AE009959C012E0D3F1D04
:10297000C9011F910F91FF90EF900895EF92FF9280
:102980000F931F937C01DB01ED91FC910190F0818D
:10299000E02DCB01B70109958C01C7010E949E145F
:1029A000080F191FC8011F910F91FF90EF90089514
:1029B000CF93DF93DB010D900020E9F71197A61B61
:1029C000B70BEC01E881F9810280F381E02DAD01C4
:1029D0000995DF91CF9108954F925F927F928F92E8
:1029E0009F92AF92BF92CF92DF92EF92FF920F939E
:1029F0001F93DF93CF93CDB7DEB7A1970FB6F894AF
:102A0000DEBF0FBECDBF2C01742ECB01223008F4E7
:102A10002AE019A231E2C32ED12CCC0EDD1E822E6B
:102A20009924AA24BB24672D752FA50194010E9427
:102A3000E53179018A01C801B701A50194010E941D
:102A4000C631472D461B0894C108D1084A3014F4FA
:102A5000405D01C0495CF6014083E114F1040105C9
:102A6000110521F07E2C5F2DC801DDCFC201B6011A
:102A70000E94D814A1960FB6F894DEBF0FBECDBF4A
:102A8000CF91DF911F910F91FF90EF90DF90CF904A
:102A9000BF90AF909F908F907F905F904F900895E0
:102AA000DC012115310541F4ED91FC910190F0819B
:102AB000E02D642F099508950E94EC140895CF929B
:102AC000DF92EF92FF920F931F936C017B019A01AB
:102AD00000E010E0B801A7010E9450158C01C6016A
:102AE0000E949E14080F191FC8011F910F91FF909B
:102AF000EF90DF90CF900895EF92FF920F931F9386
:102B00009A01E62EFF2400E010E0B801A7010E9420
:102B100050151F910F91FF90EF9008950E94D814C7
:102B20000895EF92FF920F931F937C010E94D81497
:102B30008C01C7010E949E14080F191FC8011F9124
:102B40000F91FF90EF900895AF92BF92CF92DF92D6
:102B5000EF92FF920F931F93CF93DF935C016B0172
:102B6000EE24FF24C0E0D0E010C0D501ED91FC912F
:102B700000811181C601BE010E944A13682FC50160
:102B8000F8010995E80EF91E2196F60184819581D8
:102B9000C817D90750F3C701DF91CF911F910F914B
:102BA000FF90EF90DF90CF90BF90AF900895EF929D
:102BB000FF920F931F937C010E94A4158C01C70103
:102BC0000E949E149C01200F311FC9011F910F917B
:102BD000FF90EF9008950E94D2010895CF93DF9364
:102BE0000E94D20E0E94840CC2E3D6E10E942D0CFA
:102BF0002097E1F30E943216F9CF08951F920F92A9
:102C00000FB60F9211242F933F934F938F939F935F
:102C1000EF93FF934091C6002091B7043091B80420
:102C20002F5F3F4F2F7330708091B9049091BA0499
:102C30002817390759F0E091B704F091B804E95822
:102C4000FB4F40833093B8042093B704FF91EF917A
:102C50009F918F914F913F912F910F900FBE0F90A9
:102C60001F901895E0910B05F0910C05E05CFF4F6B
:102C70008191919120813181821B930B8F73907090
:102C8000892B11F00E94FD1508951F920F920FB627
:102C90000F9211242F933F938F939F93EF93FF9362
:102CA0002091FB043091FC048091FD049091FE047E
:102CB0002817390731F48091C1008F7D8093C100BE
:102CC00014C0E091FD04F091FE04E554FB4F208117
:102CD0008091FD049091FE0401968F739070909303
:102CE000FE048093FD042093C600FF91EF919F9115
:102CF0008F913F912F910F900FBE0F901F901895BD
:102D0000AF92BF92DF92EF92FF920F931F93CF93F8
:102D1000DF93EC017A018B01DD24D39491E0A92E9D
:102D2000B12CEC89FD89DD2069F0C5010E8C02C053
:102D3000880F991F0A94E2F7808360E874E88EE1B7
:102D400090E005C0108260E472E48FE090E0A8019A
:102D500097010E94E5312150304040405040569547
:102D600047953795279580E12030380720F0DD2002
:102D700011F0DD24D6CFE889F9893083EA89FB890F
:102D80002083EE89FF89408121E030E0C9010A8C6F
:102D900002C0880F991F0A94E2F7482B4083EE89FE
:102DA000FF894081C9010B8C02C0880F991F0A94CA
:102DB000E2F7482B4083EE89FF894081C9010C8CE2
:102DC00002C0880F991F0A94E2F7482B4083EE89CE
:102DD000FF8980810D8C02C0220F331F0A94E2F715
:102DE000209528232083DF91CF911F910F91FF9091
:102DF000EF90DF90BF90AF900895CF93DF93EC01F9
:102E0000EC85FD85E05CFF4F2191319180819181BE
:102E1000281B390B2F733070C901DF91CF910895B2
:102E2000CF93DF93EC01EC85FD85E05CFF4F2081C3
:102E30003181E054F040DF01AE5BBF4F8D919C913A
:102E400011972817390719F42FEF3FEF07C08D911D
:102E50009C91E80FF91F8081282F30E0C901DF9194
:102E6000CF910895CF93DF93EC01EC85FD85E05C75
:102E7000FF4F20813181E054F040DF01AE5BBF4F56
:102E80008D919C9111972817390719F42FEF3FEF77
:102E900010C08D919C911197E80FF91F20818D91A1
:102EA0009C91119701968F73907011969C938E93BD
:102EB00030E0C901DF91CF910895FC0186859785A7
:102EC000DC01A05CBF4FFC01EE5BFF4F2D913C91FC
:102ED00011978081918128173907C1F70895CF9301
:102EE000DF93EC01EE85FF85E05CFF4F20813181AF
:102EF000E054F0402F5F3F4F2F733070DF01AE5B27
:102F0000BF4F8D919C91119728173907D1F3E05C41
:102F1000FF4F80819181E054F040E80FF91F6083FA
:102F2000EE85FF85E05CFF4F31832083EE89FF89CA
:102F3000208181E090E00D8C02C0880F991F0A94D7
:102F4000E2F7282B208381E090E0DF91CF91089574
:102F5000109202051092010588EE93E0A0E0B0E027
:102F60008093030590930405A0930505B09306058F
:102F700083E993E0909300058093FF0487E794E052
:102F800090930C0580930B058BEB94E090930E05CA
:102F900080930D0585EC90E09093100580930F05CC
:102FA00084EC90E0909312058093110580EC90E002
:102FB000909314058093130581EC90E0909316058F
:102FC0008093150586EC90E0909318058093170583
:102FD00084E08093190583E080931A0587E080934D
:102FE0001B0585E080931C0581E080931D050895F5
:102FF000FC011382128288EE93E0A0E0B0E08483AB
:103000009583A683B78383EA93E09183808384E0EA
:1030100084870895DF93CF930F92CDB7DEB769838E
:10302000FC01A081B181FD0122813381BE016F5F6E
:103030007F4F41E050E0F90109950F90CF91DF916A
:103040000895CF93DF93EC0107C0E881F9810680F2
:10305000F781E02DCE010995E881F9810480F581A1
:10306000E02DCE010995892B81F7DF91CF9108954D
:1030700020E0FC018485843009F021E0822F08954E
:103080000F938EE195E060E040E020E000E00E94D8
:103090001A100F910895FC018485843011F480E0AA
:1030A0000895982F80E08D5F9B4F0E940520089522
:1030B000CF93DF93EC018C85843011F480E019C04C
:1030C000CE010E944B18843191F0882381F0883121
:1030D00071F08C3151F4E881F9810480F581E02DA3
:1030E000CE01099520E0892B19F021E001C020E0F4
:1030F000822FDF91CF910895EF92FF920F931F934C
:10310000CF93DF93EC018C85843089F10E94FB2101
:103110000E94610E7B018C01CE010E944B18882316
:1031200001F10E94610E6E197F09800B910B685EA0
:10313000734080409040A8F461E070E080E090E04F
:103140000E946F0EE9CF8C850E943722EC85F0E05B
:10315000EE0FFF1FEC5DFA4F1182108284E08C8726
:1031600006C0CE010E944B18882381F3ECCFDF917B
:10317000CF911F910F91FF90EF9008950F931F93A0
:10318000DF93CF930F92CDB7DEB78C01DC01ED91C9
:10319000FC910480F581E02D0995892B19F42FEF1E
:1031A0003FEF0AC0F8018485BE016F5F7F4F0E9428
:1031B0009C238981282F30E0C9010F90CF91DF91A6
:1031C0001F910F910895FC0184850E94AB230895FF
:1031D000DF93CF930F92CDB7DEB7FC018485BE019C
:1031E0006F5F7F4F41E050E00E94AB231816190635
:1031F0001CF02FEF3FEF03C08981282F30E0C90179
:103200000F90CF91DF910895FC016485643019F42B
:1032100020E030E005C080E495E00E94BB209C01E6
:10322000C90108950F931F93CF93DF938C01EA0197
:10323000FC018485843019F481E090E007C00E948D
:103240004523892B39F481E090E0F8019383828350
:10325000C0E0D0E0CE01DF91CF911F910F91089592
:10326000AF92BF92CF92DF92EF92FF920F931F9394
:10327000CF93DF937C016B015A01FC01848584307C
:1032800009F056C0C0E0D0E003E014E0C8010E949D
:103290000520882321F0883111F08C3119F4F701D1
:1032A000C48706C0219600501F4FC430D10571F766
:1032B000F70124852430E1F1809187039091880300
:1032C00001969093880380938703892B31F480E0E3
:1032D00094E09093880380938703409187035091F3
:1032E0008803822F61E020E00E94762282E090E055
:1032F000C80ED91EF7018485B601A5010E94DA2205
:1033000009C061E070E080E090E00E946F0EC701AC
:103310000E944B18882321F484E0F701848708C0B9
:10332000C7010E944B18873161F721E030E002C0ED
:1033300020E030E0C901DF91CF911F910F91FF9004
:10334000EF90DF90CF90BF90AF9008956F927F92F3
:103350008F929F92AF92BF92CF92DF92EF92FF92A5
:103360000F931F93DF93CF93CDB7DEB7E5970FB6DB
:10337000F894DEBF0FBECDBF4C015B013A0193E173
:10338000E92EF12CEC0EFD1EC7010E949510CE0116
:103390004B960E946B286E010894C11CD11CC6017B
:1033A0000E9495108E01095F1F4FC8016CE275E005
:1033B0000E94161AC701B8010E94AF1CC701B501CF
:1033C000A6010E942E1F9C0181309105C9F4D401F1
:1033D000ED91FC910484F585E02D8DE893E09E87C6
:1033E0008D878B819C81AD81BE818F87988BA98BC6
:1033F000BA8BC401BE01635F7F4FA30109959C0195
:10340000C901E5960FB6F894DEBF0FBECDBFCF91D0
:10341000DF911F910F91FF90EF90DF90CF90BF90C1
:10342000AF909F908F907F906F900895CF93DF9390
:10343000FC012DE833E031832083EB012A813B81BD
:103440004C815D812283338344835583DF91CF9107
:1034500008950F9384E395E060E040E020E000E011
:103460000E941A108CE295E00E9495100F91089529
:10347000EF92FF920F931F93182F092FE82EF92E2A
:10348000C7010E94951082E090E0E80EF91E8FE0DF
:1034900090E0B70144E050E00E940A21812F902F74
:1034A0001F910F91FF90EF900895EF92FF920F936D
:1034B0001F93DF93CF93CDB7DEB768970FB6F8941D
:1034C000DEBF0FBECDBF8C01FC01868197810097C6
:1034D00019F4EE24FF244BC00E94BA2E7C018230E6
:1034E000910529F084E0E816F10409F040C0F801E4
:1034F00066817781CE0101960E9480298FE090E05D
:10350000BE016D5F7F4F44E050E00E94DE1FF80176
:1035100066817781CE0107960E946A2981E090E05A
:10352000BE01675F7F4F44E050E00E94DE1FF8015C
:1035300066817781CE010D960E94752985E090E025
:10354000BE01615F7F4F44E050E00E94DE1FF80142
:1035500066817781CE0143960E945F298D899E897D
:10356000AF89B88DF80182839383A483B583C701A3
:1035700068960FB6F894DEBF0FBECDBFCF91DF9136
:103580001F910F91FF90EF9008956F927F928F920D
:103590009F92AF92BF92CF92DF92EF92FF920F93E2
:1035A0001F933C015B016A01490180E495E00E94A0
:1035B000C92189E090E0B50146E050E00E94DE1F9D
:1035C00082E090E0C80ED91E8FE090E0B60144E0A2
:1035D00050E00E94DE1F0E5F1F4F81E090E0B801B7
:1035E00044E050E00E94DE1FE2E0F0E0EE0EFF1E3D
:1035F00085E090E0B70144E050E00E94DE1FF40156
:1036000082819381A481B581F30182839383A48312
:10361000B5831F910F91FF90EF90DF90CF90BF90F7
:10362000AF909F908F907F906F9008956F927F9250
:103630008F929F92AF92BF92CF92DF92EF92FF92C2
:103640000F931F93DF93CF93CDB7DEB76E970FB66F
:10365000F894DEBF0FBECDBF4C013B017A0169017A
:103660005801CE0101966FEF4FEF2FEF00E00E945F
:103670001A102DE833E038872F83F7018281938178
:10368000A481B58189879A87AB87BC873E872D87C0
:10369000F60182819381A481B5818F87988BA98B54
:1036A000BA8B3C8B2B8BF50182819381A481B581F0
:1036B0008D8B9E8BAF8BB88F3A8F298F8B819C819E
:1036C000AD81BE818B8F9C8FAD8FBE8FC401B30146
:1036D000AE01495F5F4F9E01235F3F4F8E010D5E3C
:1036E0001F4FE9E1EE2EF12CEC0EFD1E0E94C51AD3
:1036F0006E960FB6F894DEBF0FBECDBFCF91DF91AF
:103700001F910F91FF90EF90DF90CF90BF90AF90FF
:103710009F908F907F906F9008950F931F93DF93EA
:10372000CF93CDB7DEB768970FB6F894DEBF0FBE64
:10373000CDBFFA01D90122813381448155812B8388
:103740003C834D835E830DE813E018870F83298740
:103750003A874B875C871E870D87FD012281338165
:10376000448155812F87388B498B5A8B1C8B0B8B4F
:1037700021E02E832B813C814D815E812D8B3E8B00
:103780004F8B588FAE01495F5F4F9E01235F3F4FC4
:103790008E010D5E1F4F0E94161B68960FB6F8949F
:1037A000DEBF0FBECDBFCF91DF911F910F91089566
:1037B000DF93CF93CDB7DEB762970FB6F894DEBF35
:1037C0000FBECDBFFA0122813381448155812B8305
:1037D0003C834D835E83EDE8F3E0F887EF83298730
:1037E0003A874B875C87FE87ED8721E02E832B810C
:1037F0003C814D815E812F87388B498B5A8BAE017E
:10380000495F5F4F9E01235F3F4F0E948D1B629671
:103810000FB6F894DEBF0FBECDBFCF91DF910895F4
:10382000CF92DF92EF92FF920F931F93DF93CF938C
:10383000CDB7DEB76E970FB6F894DEBF0FBECDBF23
:103840006C017B0182E690E00E94EB158C01895BA4
:103850009F4F0E946B28F6011783068380E495E052
:103860000E94C92189E090E0B70146E050E00E9443
:10387000DE1FCE01019660E040E020E000E00E9403
:103880001A108FE090E0BE016D5F7F4F44E050E082
:103890000E94DE1FF60186819781B70120E63AEE8D
:1038A00040E050E0F0EAEF2EFFE0FF2E012D112D59
:1038B0000E94AE2F8C018130910509F040C0F601C5
:1038C00066817781CE0107960E9480298FE090E083
:1038D000BE01675F7F4F44E050E00E94DE1FF601AB
:1038E00066817781CE010D960E946A2981E090E081
:1038F000BE01615F7F4F44E050E00E94DE1FF60191
:1039000066817781CE0143960E94752985E090E01B
:10391000BE016B5E7F4F44E050E00E94DE1FF60167
:1039200066817781CE0149960E945F298B8D9C8D9F
:10393000AD8DBE8DF60182839383A483B583C801C8
:103940006E960FB6F894DEBF0FBECDBFCF91DF915C
:103950001F910F91FF90EF90DF90CF9008959C0101
:10396000FB0182819381A481B581F90182839383D4
:10397000A483B583178216820895CF93DF93FB014A
:1039800001C0319680818823E1F7EB01A0E0B0E02F
:1039900020E030E021C06E3261F42F3F310509F0A4
:1039A0007CF5FA01EA0FFB1F2283119620E030E03C
:1039B00012C0C901E3E0880F991FEA95E1F7220FD1
:1039C000331F820F931F262F332727FD3095205357
:1039D0003040280F391F21966881662319F0A430E2
:1039E000B105CCF22F3F310509F054F4A430B105F4
:1039F0003CF4A40FB51FFD01228321E030E002C09A
:103A000020E030E0C901DF91CF9108950F938AE360
:103A100095E060E040E020E000E00E941A100F9185
:103A200008952F923F924F925F926F927F928F9262
:103A30009F92AF92BF92CF92DF92EF92FF920F933D
:103A40001F93DF93CF93CDB7DEB769970FB6F89486
:103A5000DEBF0FBECDBF4C018B011A010E94610E6B
:103A60002B013C01F8E0EF2EF12CE80CF91C580179
:103A7000CC24DD2414C00E94610E641975098609E6
:103A80009709A616B706C806D90618F42FEF3FEF18
:103A90000BC162E370E080E090E00E946F0EC7010E
:103AA0000E94F0271816190634F7F4012281338199
:103AB00044815581818D928DA38DB48D8A879B879A
:103AC000AC87BD87281739074A075B0709F0EAC0AA
:103AD000858D968DC59709F0E5C000C18E01025F06
:103AE0001F4FC701B8014CE050E00E94A227F80127
:103AF000528143815B834A83F401268137818E851D
:103B00009F852817390711F457FD06C0C7010E9489
:103B10006A272CEF3FEFC8C04F705270452B31F031
:103B2000C7010E946A272BEF3FEFBEC0F8017680E5
:103B300067806114710441F0AA24BB2448012E015E
:103B40000894411C511C28C0C7010E946A272AEF13
:103B50003FEFAAC0C701B20141E050E00E94A22796
:103B60008981882321F408C0C7010E94C527898163
:103B7000815089838F5FC1F78981882359F700E0DD
:103B800010E0C7010E94C5270F5F1F4F04301105C9
:103B9000C1F70894A11CB11CF401D480C580AC14F9
:103BA000BD04C0F244245524C701BE016F5F7F4F9E
:103BB00041E050E00E94A2279981892F807C61F426
:103BC000992321F40DC0C7010E94C5278981815026
:103BD00089838F5FC1F704C0C7010E94C52719827E
:103BE0008981882309F7C701BE016C5F7F4F42E0DE
:103BF00050E00E94A227C701BE016A5F7F4F42E0EA
:103C000050E00E94A22700E010E0C7010E94C527F3
:103C10000F5F1F4F04301105C1F7C701BE016E5F72
:103C20007F4F42E050E00E94A227DC80CD80F1E08F
:103C3000CF16D10419F5BE80AF8081E0A816B1047B
:103C4000E9F49A818B81049731F0C7010E946A27B9
:103C500027EF3FEF29C0E2E0F0E02E0E3F1EC70144
:103C6000B10144E050E00E94A22721E030E01CC0F6
:103C7000C7010E94C5270F5F1F4F02C000E010E080
:103C80009A808B800815190598F30894411C511CE3
:103C90004614570408F488CFC7010E946A2726EF0C
:103CA0003FEF02C02EEF3FEFC90169960FB6F894BF
:103CB000DEBF0FBECDBFCF91DF911F910F91FF905F
:103CC000EF90DF90CF90BF90AF909F908F907F90BC
:103CD0006F905F904F903F902F9008958DE893E004
:103CE00099878887C7010E944F270C970CF0F6CE62
:103CF0002DEF3FEFD9CF6F927F928F929F92AF922D
:103D0000BF92CF92DF92EF92FF920F931F93DF93B8
:103D1000CF9300D00F92CDB7DEB78C01F62EE72EF1
:103D20000E94610EF80177836683B8E0CB2ED12C18
:103D3000C00ED11E0A5F1F4FC601B80142E050E01D
:103D40000E94432881E090E09B838A83A2E08A2E30
:103D5000912C8C0E9D1EC601B40142E050E00E94E1
:103D6000432880E091E09B838A83C601B40142E04E
:103D700050E00E9443281B821A82C601B40142E02F
:103D800050E00E944328C601B40142E050E00E9486
:103D90004328C601B40142E050E00E9443282F2D81
:103DA0003E2DC9018C017C013E010894611C711CEF
:103DB00020C00894E11CF11CF7018081882311F0D8
:103DC0008E32B9F75701A01AB10A1A141B0474F401
:103DD0008E2D801B8983C601B30141E050E00E9413
:103DE0004328C601B801A5010E94432887010F5F3F
:103DF0001F4FF7018081882311F07801DDCF1982F0
:103E0000C601BE016F5F7F4F41E050E00E94432832
:103E100000E011E01B830A83C601B40142E050E0D8
:103E20000E9443281B830A83C601B40142E050E08C
:103E30000E94432881E090E00F900F900F90CF9167
:103E4000DF911F910F91FF90EF90DF90CF90BF9087
:103E5000AF909F908F907F906F9008958F929F92D8
:103E6000AF92BF92CF92DF92EF92FF920F931F9388
:103E7000DF93CF9300D000D000D0CDB7DEB76C0178
:103E80007B014A010E94BD1C892B19F001E010E062
:103E900067C0F601228133814481558180913C05C0
:103EA00090913D05A0913E05B0913F052817390737
:103EB0004A075B0719F40EEF1FEF52C018E0A12E5E
:103EC000B12CAC0CBD1C0E94610E9B01AC012F708B
:103ED000307020503C4FC501B9010E940629813045
:103EE00019F000E010E03CC08DE893E09A838983EC
:103EF000F60182819381A481B5818B839C83AD83FC
:103F0000BE83C501BE016F5F7F4F45E350E00E9455
:103F100062288C01009709F1C601B7010E947B1E3F
:103F20008C010097D1F0C5010E945D288C0100979B
:103F3000A1F0EE24FF24C60168E873E1A4010E9409
:103F4000111D8C010894E11CF11CF3E0EF16F10443
:103F500021F08FEF0F3F180771F3C5010E94F12880
:103F6000C80126960FB6F894DEBF0FBECDBFCF9125
:103F7000DF911F910F91FF90EF90DF90CF90BF9056
:103F8000AF909F908F900895282F2A9880EF8EBD34
:103F90000DB407FEFDCF8EB59EBD0DB407FEFDCF5F
:103FA0008EB52EBD0DB407FEFDCF8EB56EBD0DB422
:103FB00007FEFDCF8EB52A9A81E00895DC0120E04E
:103FC00030E090EF1DC02A989EBD0DB407FEFDCFD6
:103FD0008EB5BEBD0DB407FEFDCF8EB5AEBD0DB422
:103FE00007FEFDCF8EB5FB01E20FF31F80818EBD72
:103FF0000DB407FEFDCF11968EB52A9A2F5F3F4F65
:104000002417350700F3CA010895282F2A988FE056
:104010008EBD0DB407FEFDCF8EB59EBD0DB407FE5F
:10402000FDCF8EB52EBD0DB407FEFDCF8EB51EBCE7
:104030000DB407FEFDCF8EB52A9A089590E0049640
:10404000982F8827860F971F0E94052008957F923A
:104050008F929F92AF92BF92CF92DF92EF92FF9298
:104060000F931F93CF93DF936C01762E7A01490152
:104070005801862F64E270E00E941E20182F872DC1
:1040800065E270E00E941E20C82FD0E0912F80E0F2
:10409000C82BD92BCE0DDF1DAE015770872D90E0B8
:1040A000880F991FC80ED91EF60120813181240F77
:1040B000351FCA018A0D9B1D8150984098F000E081
:1040C00018E0041B150BC901B401A8010E94DE1FF2
:1040D000A501401B510BF60180819181080D191D2E
:1040E000B80103C0C901B401A5010E94DE1F7E0111
:1040F000EA0CFB1C072D10E00C5F1F4F102F002750
:10410000C80184966F2D0E94C41FC80185966E2D2C
:104110000E94C41FDF91CF911F910F91FF90EF90EC
:10412000DF90CF90BF90AF909F908F907F90089539
:104130000F931F93FA01890140E050E09F010E9414
:1041400027201F910F9108950F931F93182F66E258
:1041500070E00E941E20082F812F67E270E00E940D
:104160001E20502F40E0282F30E0242B352BC90192
:104170001F910F910895FF920F931F93CF93DF9399
:10418000F62EC0E0D0E08F2D0E94A4208C01009775
:1041900021F08F2D0E94A420EC01C017D10799F7C0
:1041A000CE01DF91CF911F910F91FF9008950F9352
:1041B0001F93182F60E270E00E941E20082F812FAD
:1041C00061E270E00E941E20502F40E0282F30E076
:1041D000242B352BC9011F910F910895FF920F9346
:1041E0001F93CF93DF93F62EC0E0D0E08F2D0E9477
:1041F000D7208C01009721F08F2D0E94D720EC0151
:10420000C017D10799F7CE01DF91CF911F910F9180
:10421000FF900895DC0120E030E09FE01DC02A9867
:104220009EBD0DB407FEFDCF8EB5BEBD0DB407FE1D
:10423000FDCF8EB5AEBD0DB407FEFDCF8EB51EBC55
:104240000DB407FEFDCF11968EB5FB01E20FF31FF3
:1042500080832A9A2F5F3F4F2417350700F3CA0146
:104260000895CF92DF92EF92FF920F931F93CF9317
:10427000DF93690178015770C62FD0E02496CC0FE8
:10428000DD1FC80FD91F28813981240F351FC801B0
:10429000840F951F8150984088F000E018E0041BBF
:1042A000150BC901B601A8010E940A21E01AF10A02
:1042B000888199810C0D1D1DB80102C0C901B6018C
:1042C000A7010E940A21DF91CF911F910F91FF90CA
:1042D000EF90DF90CF9008958F929F92AF92BF9210
:1042E000CF92DF92EF92FF920F931F93CF93DF93C2
:1042F0007C01A62E6A014901B02E862F68E270E08B
:104300000E941E20182F8A2D69E270E00E941E2054
:10431000C82FD0E0912F80E0C82BD92BC7016A2D80
:10432000AE01960184010E943121BB2099F47E01E7
:10433000E80CF91C0A2D10E00C5F1F4F102F00270E
:10434000C80188966F2D0E94C41FC80189966E2DE2
:104350000E94C41FDF91CF911F910F91FF90EF90AA
:10436000DF90CF90BF90AF909F908F9008951F9354
:10437000162F962F80E08F5F9B4F642F0E94C41FE3
:10438000812F61E070E00E941E208823C9F71F91F1
:1043900008950F931F93182F092F6CE271E080E0AE
:1043A00090E00E946F0E0E941127229A80E090E018
:1043B00060E80E94C41F8BE190E065E50E94C41F85
:1043C0008AE190E065E50E94C41F212F302FC901CA
:1043D000FC0180E090E4918380838050904E91872F
:1043E000808780509841329620E68030920799F776
:1043F0001F910F910895682F80E495E048E050E008
:104400000E94B721089590E0982F88278E5F9B4FD8
:104410000E940520089590E0982F88278E5F9B4F7B
:104420000E94C41F08951F93182F80E495E0612F08
:1044300040E250E00E94B7210CC0812F0E9403226D
:1044400083FF07C0812F68E10E940B2220E030E04B
:104450000BC0812F0E94032284FFEFCF812F60E1E8
:104460000E940B2221E030E0C9011F9108951F93A3
:10447000182F80E495E0612F40E150E00E94B721C1
:10448000812F6FEF0E940B221F910895FF920F93CF
:104490001F93F62E672F082F10E00C5F1F4F102F71
:1044A0000027C80140960E94C41FC80141966F2D85
:1044B0000E94C41F1F910F91FF900895FF920F93C8
:1044C0001F93F62E672F082F10E00C5F1F4F102F41
:1044D0000027C80104960E94C41FC80105966F2DCD
:1044E0000E94C41F1F910F91FF900895FF920F9398
:1044F0001F93CF93DF93082FF62EEA01122F862FFA
:104500008150853010F080E024C0802F0E94372237
:104510001F2980E0902F9C5F612F0E94C41F20976D
:1045200019F0802FBE010BC06091500570915105AC
:104530006F5F7F4F7093510560935005802F0E94ED
:104540005E2280E495E0602F41E050E00E94B721B8
:1045500081E0DF91CF911F910F91FF9008951F93FC
:10456000CF93DF93182FFB01EA018081882349F460
:104570008181882331F48281882319F483818823FF
:1045800091F0209781F0912F80E0845F9B4FBF01D5
:1045900044E050E00E94DE1F812FBE010E944622AF
:1045A00021E030E002C020E030E0C901DF91CF918E
:1045B0001F9108951F93CF93DF93182FFB01EA01FA
:1045C00080818F3F51F481818F3F91F482818F3FB1
:1045D00079F483818F3F61F423C0882349F481817A
:1045E000882331F48281882319F483818823C1F0E0
:1045F0002097B1F0912F80E0845F9B4FBF0144E092
:1046000050E00E94DE1F812FBE010E94462280E4FE
:1046100095E0612F44E050E00E94B72181E001C0A5
:1046200080E0DF91CF911F910895AF92BF92DF920A
:10463000EF92FF920F931F93CF93DF93D82EEB014E
:104640005A01890180E495E06D2D0E94EE208017CB
:10465000910710F0780106C080E495E06D2D0E946E
:10466000EE207C0180E495E06D2DAE01950187017F
:104670000E942720C701DF91CF911F910F91FF90DA
:10468000EF90DF90BF90AF900895AF92BF92DF920E
:10469000EF92FF920F931F93CF93DF93D82E5B017E
:1046A0008A0188E04130580710F000E018E0DD2D65
:1046B000C0E0CD5FDB4F80E495E06D2D0E94EE20E1
:1046C0007C01CE010E940520873129F08C3119F040
:1046D00000E010E003C0E016F10668F380E495E026
:1046E0006D2DA50198010E94982080E495E06D2D24
:1046F00040E250E00E94B7210BC0CE010E9405208D
:10470000882331F48D2D0E94372200E010E009C08B
:104710008D2D0E94032284FFF0CF8D2D60E10E9439
:104720000B22C801DF91CF911F910F91FF90EF9065
:10473000DF90BF90AF9008950F93282FAB0180E4D6
:1047400095E0622F21E030E001E00E946C2181E0E1
:1047500090E00F910895CF92DF92FF920F931F93F5
:10476000CF93DF93F82E6B018A0180E495E06F2DE3
:104770000E94BB20EC01009769F49F2D80E08D5FC3
:104780009B4F0E9405208431D9F08823C9F08C31D9
:10479000B9F01FC0081719070CF4E8011C161D0614
:1047A0007CF480E495E06F2DA6019E0100E00E945C
:1047B0006C2180E495E06F2D40E450E00E94B72129
:1047C000CE01DF91CF911F910F91FF90DF90CF909D
:1047D0000895CFEFDFEFF4CF20913D0630E0F901EF
:1047E000E354FA4F80832F5F3F4F2F773070209331
:1047F0003D068091BC058F5F8093BC050895DF93D3
:10480000CF930F92CDB7DEB780689FB79983F894A6
:1048100043988EBD0DB407FEFDCF8EB58EBD0DB491
:1048200007FEFDCF8EB5439A99819FBF0F90CF9120
:10483000DF910895FF920F931F93DF93CF930F9211
:10484000CDB7DEB7182FF62E042F0E94FF23982F26
:10485000106C8FB78983F89443981EBD0DB407FE82
:10486000FDCF8EB5802F809589230F21802B8EBDA3
:104870000DB407FEFDCF8EB5439A89818FBF0F908F
:10488000CF91DF911F910F91FF900895CF93DF9308
:10489000EC01CE010E94C80E2197D9F7DF91CF918C
:1048A00008950F931F93082F429B02C084E446C0D3
:1048B00081E00E94FF23182F1F71812F81518230C8
:1048C00020F0113011F0123031F481E00E94FF230A
:1048D0008F718117D1F3083029F0063171F0093159
:1048E000B9F408C0429886E090E00E94462482E035
:1048F00063E007C0163161F402C0193149F482E067
:1049000069E04FE10E941A2481E090E00E94462471
:1049100082E0602F4FE10E941A24183011F081E0EC
:1049200001C084EB90E00E94462481E00E94FF23B6
:104930008F71801711F083E401C080E41F910F9103
:1049400008951F920F920FB60F921124AF92BF924B
:10495000CF92DF92EF92FF920F931F932F933F938B
:104960004F935F936F937F938F939F93AF93BF9377
:10497000EF93FF93DF93CF93CDB7DEB7E497DEBF1E
:10498000CDBF8FB78983F8941E9BBCC043988FE836
:104990008EBD0DB407FEFDCF8EB51EBC0DB407FE57
:1049A000FDCF0EB5439A20E2E22E90E8A92EB12C5D
:1049B00083E0C82ED12CCC0EDD1EA1C002FF02C0A8
:1049C0000B7F9DC003FF7EC081E00E94FF238F719B
:1049D000863029F0863119F0813109F069C087E00D
:1049E0000E94FF238093510686E00E94FF23881FC8
:1049F0008827881F80935206882309F45CC08FB7EC
:104A00008A83F8944398EEBC0DB407FEFDCF8EB5B3
:104A10001EBC0DB407FEFDCFFEB48F2D83508D3725
:104A2000B8F52F2D30E08091BC05A501481B510938
:104A30002417350714F080E016C08F2D0E94EC2358
:104A400010E008C01EBC0DB407FEFDCF8EB50E945D
:104A5000EC231F5F1F15B0F31BC01EBC0DB407FE77
:104A6000FDCF9EB58F5F8F15C0F380914B0690915F
:104A70004C06019690934C0680934B06C60166EA5D
:104A800072E00E942F058FEF94E0B6010E948E1510
:104A9000439A8A818FBF8091430690914406019684
:104AA000909344068093430681E08093410603C0BF
:104AB00081E08093420686E10E9451248034D9F738
:104AC000077F1DC006FF0BC00F7B80914D069091A4
:104AD0004E06019690934E0680934D0610C001FF3E
:104AE00002C00D7F0CC000FF02C00E7F08C007FF90
:104AF00006C00F7780914F068F5F80934F0600238B
:104B000009F05CCF89818FBFE496DEBFCDBFCF9126
:104B1000DF91FF91EF91BF91AF919F918F917F9125
:104B20006F915F914F913F912F911F910F91FF9046
:104B3000EF90DF90CF90BF90AF900F900FBE0F908F
:104B40001F901895CF92DF92EF92FF920F931F93D1
:104B5000F82EE92E6B0186E090E00E94D20180934E
:104B6000520590935305EF2DFE2DDF010D9000208F
:104B7000E9F7CD018E1B9F0B0E94D2018C016F2D96
:104B80007E2D0E945A05AF2DBE2DFD010190002003
:104B9000E9F73197EA1BFB0BE00FF11F1082E09160
:104BA0005205F091530511830083D382C282809114
:104BB00054059091550595838483F0935505E093B2
:104BC00054051F910F91FF90EF90DF90CF900895C3
:104BD0000E94A2250895AB01BC0188E595E0909361
:104BE00057058093560510925505109254058FEF86
:104BF00094E00E94801608950E94EB250895EF929C
:104C0000FF920F931F93DF93CF93CDB7DEB7E29759
:104C10000FB6F894DEBF0FBECDBF5FEFE52E54E0B8
:104C2000F52EC7010E949E148E010F5F1F4FC80111
:104C300069EE72E00E942F05C701B8010E9491152C
:104C4000C80163E173E00E942F05C701B8010E940B
:104C50008E15E2960FB6F894DEBF0FBECDBFCF9192
:104C6000DF911F910F91FF90EF9008954F925F9207
:104C70006F927F928F929F92AF92BF92CF92DF926C
:104C8000EF92FF920F931F93DF93CF93CDB7DEB7D1
:104C9000CE56D0400FB6F894DEBF0FBECDBFE8E5CC
:104CA0004E2EE5E05E2E75E3672E712C6C0E7D1E98
:104CB0005E010894A11CB11C63E3862E912C8C0E1E
:104CC0009D1E8DC08FEF94E00E943217182F883000
:104CD00009F45EC0E0915605F09157058D3009F05A
:104CE0006BC010828FEF94E06AE573E00E948E152E
:104CF00088E595E06DE573E00E9436059CAB8BABD3
:104D0000730101E010E0D02EC12E80E090E06DE54F
:104D100073E00E943605F701918380830E311105FF
:104D200041F00F5F1F4F22E030E0E20EF31E892BAF
:104D300051F70091520510915305EBA8FCA814C03F
:104D4000F80160817181C7010E945105009749F403
:104D5000F801228133818D2D9C2DB401F901099533
:104D600010C0F801048115810115110549F7C5012D
:104D70006AEC72E00E942F058FEF94E0B5010E946B
:104D800091150E94FF25509257054092560527C065
:104D90008FEF94E068E00E94961480915605909100
:104DA0005705F5E088359F07D1F0C8F0019790933B
:104DB00057058093560513C0E855F540E336F105D5
:104DC00074F48FEF94E0612F0E949614E0915605E1
:104DD000F09157051193F0935705E09356058FEF27
:104DE00094E00E94FD16892B09F06CCFC259DF4F69
:104DF0000FB6F894DEBF0FBECDBFCF91DF911F91EC
:104E00000F91FF90EF90DF90CF90BF90AF909F9069
:104E10008F907F906F905F904F9008950E943626FC
:104E200008958DE061E00E948A0F8BE061E00E94AE
:104E30008A0F8AE061E00E948A0F8DE060E00E94A4
:104E4000C90F8BE060E00E94C90F8AE061E00E9418
:104E5000C90F8CB580618CBD8CB580648CBD089504
:104E6000DC01ED91FC91008CF18DE02D0995089508
:104E7000CF93DF93FC012DE833E031832083EB01F6
:104E800029893A894B895C892283338344835583FA
:104E9000DF91CF910895FC01858996890895FC01E1
:104EA000818D928D0895DF93CF930F92CDB7DEB7AA
:104EB0006983FC01A081B181FD0122813381BE01A2
:104EC0006F5F7F4F41E050E0F90109950F90CF915E
:104ED000DF910895CF93DF93EC0107C0E881F9815A
:104EE0000680F781E02DCE010995898D9A8D892B59
:104EF000A9F7DF91CF9108950F9384E596E060E0E4
:104F000040E020E000E00E941A100F910895DF9326
:104F1000CF930F92CDB7DEB7FC01818D928D892B97
:104F200019F42FEF3FEF09C08485BE016F5F7F4FFB
:104F30000E949C238981282F30E0C9010F90CF91D6
:104F4000DF910895CF93DF93EC019A01498D5A8D3B
:104F500041155105A1F02417350710F08C8502C0CA
:104F60008C85A9010E94AB239C01181619063CF4FC
:104F7000898D9A8D821B930B9A8F898F02C02FEF98
:104F80003FEFC901DF91CF9108950F931F93DF93F6
:104F9000CF930F92CDB7DEB78C01FC01818D928D3E
:104FA000892BA9F08485BE016F5F7F4F41E050E0FF
:104FB0000E94AB231816190654F4F801818D928DC6
:104FC0000197928F818F8981282F30E002C02FEFC7
:104FD0003FEFC9010F90CF91DF911F910F9108957D
:104FE000EF92FF920F931F93DF93CF93CDB7DEB76E
:104FF00028970FB6F894DEBF0FBECDBF8C01DC0141
:10500000ED91FC910284F385E02D099580E495E013
:10501000F80164850E94BB20892B19F420E030E060
:1050200024C0F80184857E010894E11CF11CB701BD
:1050300048E050E00E94AB239C0118161906ACF41E
:10504000C8010F96B7010E9477109D8180E02E81E4
:10505000820F911DF801968B858B9F8180E02885BA
:10506000820F911D928F818F9C01C90128960FB6E6
:10507000F894DEBF0FBECDBFCF91DF911F910F918E
:10508000FF90EF9008950F931F93CF93DF93FB0151
:105090009A01EC016F89788D8C85AF010E941523F0
:1050A0009C018F89988D820F931F988F8F8BC901D8
:1050B000DF91CF911F910F910895FC0184850E948B
:1050C00013220895FC01108E178A6E5F7F4F84852E
:1050D0000E94AF220895FC011382128288EE93E0B1
:1050E000A0E0B0E084839583A683B7838FEB93E041
:1050F0009183808384E08487CF010F960E9495106E
:1051000008956F927F928F929F92AF92BF92CF92AB
:10511000DF92EF92FF920F931F93DF93CF93CDB760
:10512000DEB7E5970FB6F894DEBF0FBECDBF4C01DA
:105130005B013A0183E1E82EF12CEC0EFD1EC70164
:105140000E949510CE014B960E946B286E01089428
:10515000C11CD11CC6010E9495108E01095F1F4F12
:10516000C8016CE275E00E94161AC701B8010E94DE
:10517000AF1CC701B501A6010E942E1F9C01813002
:105180009105C9F4D401ED91FC910088F189E02DDD
:105190008DE893E09E878D878B819C81AD81BE8158
:1051A0008F87988BA98BBA8BC401BE01635F7F4F39
:1051B000A30109959C01C901E5960FB6F894DEBFDD
:1051C0000FBECDBFCF91DF911F910F91FF90EF9058
:1051D000DF90CF90BF90AF909F908F907F906F9017
:1051E0000895CF93DF93EC018C85843061F00E94A9
:1051F0003722EC85F0E0EE0FFF1FEC5DFA4F1182D5
:10520000108284E08C87DF91CF910895CF92DF9256
:10521000EF92FF920F931F93CF93DF937C016B016B
:10522000FC018485843019F5C0E0D0E003E014E08F
:10523000C8010E940520882311F0883119F4F70174
:10524000C48706C0219600501F4FC430D10581F796
:10525000F7018485843059F0D686C586128E118E6A
:1052600062E0A60120E00E94762281E001C080E099
:10527000DF91CF911F910F91FF90EF90DF90CF9032
:105280000895FB0180E38083842F82958F704F7097
:105290004A3014F4405D01C0495C41833197882352
:1052A00011F0482FF1CF08950F938AE596E060E062
:1052B00040E020E000E00E941A100F9108950F9343
:1052C0001F938C01625E7F4F0E948410C8011F9162
:1052D0000F9108950F931F938C016A5E7F4F0E9478
:1052E0008410C8011F910F9108950F931F938C0193
:1052F0006E5E7F4F0E948410C8011F910F91089528
:105300000F931F938C01625F7F4F0E948410C8012E
:105310001F910F9108952F923F924F925F926F923B
:105320007F928F929F92AF92BF92CF92DF92EF9235
:10533000FF920F931F93DF93CF93CDB7DEB7E8971C
:105340000FB6F894DEBF0FBECDBF5C013A014B0132
:1053500029010E94610E7B018C01F7E4CF2ED12C34
:10536000CA0CDB1C14C00E94610E6E197F09800BF1
:10537000910B661677068806990618F477247A94B6
:1053800010C262E370E080E090E00E946F0EC60100
:105390000E94F0271816190634F7C601BE01635F94
:1053A0007F4F42E250E00E94A2278D85823009F0B3
:1053B000F4C12CE530E0A20EB31EF501808191818D
:1053C00024EA3FEFA20EB31E8334910509F0E5C134
:1053D00029893A894B895C89E52EFF24002711270A
:1053E000B22FAA2799278827E82AF92A0A2B1B2BEC
:1053F000B42FA32F922F882780709070B070E82A66
:10540000F92A0A2B1B2B232F342F452F55272070C9
:1054100040705070E22AF32A042B152BF201E0822F
:10542000F18202831383B501685F7F4FCE018996B5
:1054300046E050E00E943B05009799F4F501808119
:105440009181A281B381E816F9060A071B0748F08B
:1054500084819581A681B7818E159F05A007B1072C
:1054600028F4C6010E946A2777249BC18D8D9E8DEA
:10547000AF8DB8A1F50186879787A08BB18B00E02F
:1054800010E0C6010E94C5270F5F1F4F0E3C11059B
:10549000C1F795012E5E3F4F38AF2FABC501469641
:1054A0009EAB8DABF5017E96FCABEBAB8AE1882E13
:1054B000912C8A0C9B1C95012A5D3F4F3AAB29AB7E
:1054C000C5018A9698AB8FA702E2202E312C2A0CB8
:1054D0003B1C772418E5412E512C4A0C5B1C55C10E
:1054E000C6010E94C527009709F44FC1813091057C
:1054F00039F18330910559F18630910509F443C0A3
:105500008333910509F4FDC08533910589F0863315
:10551000910509F454C08A33910509F486C08B3390
:10552000910509F4B8C08F3F910509F023C12DC141
:10553000C6010E94C527C6010E94C527782E25C135
:10554000C6010E94C527C6016FA978AD62C0C60119
:105550000E94C527182FC6016DA97EA944E050E01E
:105560000E94A227EE24FF24012F10E004501040D7
:1055700006C0C6010E94C5270894E11CF11CE01674
:10558000F106BCF302C1C6010E94C527182FC6014F
:105590006BA97CA944E050E00E94A227EE24FF24DE
:1055A000012F10E00450104006C0C6010E94C5271C
:1055B0000894E11CF11CE016F106BCF3E6C0C6013C
:1055C0000E94C527182FF40180819181A281B381A7
:1055D0000097A105B105D9F0CE010196B4010E9452
:1055E00084102DE833E038872F83F2012081318148
:1055F0004281538129873A874B875C878B819C81C5
:10560000AD81BE8182179307A407B50759F4C6017F
:10561000B40144E050E00E94A227B7C0C6010E9436
:10562000C52711501123D1F7B0C0C6010E94C5276C
:10563000C60169A97AA944E050E00E94A227F501B9
:1056400026A137A140A551A5E52EFF24002711274B
:10565000B22FAA2799278827E82AF92A0A2B1B2B79
:10566000B42FA32F922F882780709070B070E82AF3
:10567000F92A0A2B1B2B232F342F452F5527207057
:1056800040705070E22AF32A042B152BE6A2F7A2F1
:1056900000A711A77AC0C6010E94C527C6016FA541
:1056A00078A944E050E00E94A227F50122A533A585
:1056B00044A555A5E52EFF2400271127B22FAA27C0
:1056C00099278827E82AF92A0A2B1B2BB42FA32F06
:1056D000922F882780709070B070E82AF92A0A2BE0
:1056E0001B2B232F342F452F5527207040705070CF
:1056F000E22AF32A042B152BE2A6F3A604A715A78A
:1057000044C0C6010E94C527C601B10144E050E073
:105710000E94A227F50122A133A144A155A1E52EA3
:10572000FF2400271127B22FAA2799278827E82AC4
:10573000F92A0A2B1B2BB42FA32F922F88278070B6
:105740009070B070E82AF92A0A2B1B2B232F342FD4
:10575000452F5527207040705070E22AF32A042B01
:10576000152BE2A2F3A204A315A3E6A6F7A600ABAD
:1057700011AB0BC0C6010E94C527182F04C0C6017B
:105780000E94C52711501123D1F7C6010E944F274F
:10579000181619060CF4A4CE01C07724C6010E9485
:1057A0006A27872DE8960FB6F894DEBF0FBECDBFEF
:1057B000CF91DF911F910F91FF90EF90DF90CF90ED
:1057C000BF90AF909F908F907F906F905F904F9021
:1057D0003F902F9008950E96FC0184E1DF011D9209
:1057E0008A95E9F708954F925F926F927F928F9218
:1057F0009F92AF92BF92CF92DF92EF92FF920F9360
:105800001F93DF93CF93CDB7DEB7E2970FB6F8942F
:10581000DEBF0FBECDBF6C01462E3A01F3E18F2EE5
:10582000912C8C0E9D1EE0E25E2EF401252D11922E
:105830002A95E9F7CE0107966FEF4FEF2FEF0FEFA5
:105840000E941A1077E4A72EB12CAC0CBD1C8DE879
:1058500093E09E878D8789859A85AB85BC858F87E8
:10586000988BA98BBA8BC501BE01635F7F4F43E460
:1058700050E00E9462288F5F9F4F09F4F3C081E0DF
:105880008B8B8C8B86E08D8B1E8AF6012481358173
:1058900046815781E52EFF2400271127B22FAA2722
:1058A00099278827E82AF92A0A2B1B2BB42FA32F24
:1058B000922F882780709070B070E82AF92A0A2BFE
:1058C0001B2B232F342F452F5527207040705070ED
:1058D000E22AF32A042B152BEB82FC820D831E8314
:1058E000EF8AF88E098F1A8F7B8E6C8E80E890E09D
:1058F0009A8389839E8F8D8FC501B4014CE150E05E
:105900000E944328F40111925A94E9F7A8E06A2E04
:10591000712C6C0C7D1CD401F30186E001900D927A
:105920008150E1F78E010D5E1F4FC501B80140E1C6
:1059300050E00E94432880E2F80111928A95E9F72D
:10594000EE24FF24902E012FC501692D702F40E217
:1059500050E00E9443280894E11CF11CF6E0EF1689
:10596000F10491F793E69B8B82E88C8B83E58D8B1A
:105970009E8B85E38F8B91E0988F498E8DE38A8F84
:1059800087E08B8F9C8FDE015D96F30186E00190AE
:105990000D928150E1F78CE08BA38CA38E010D5EFC
:1059A0001F4FCE0185966FE573E00E945A05C60130
:1059B000BE01655D7F4FF60143850E944129C60106
:1059C000BE01635D7F4FF60144850E944129C601F7
:1059D000BE01615D7F4FF60145850E944129C501E9
:1059E000B8014EE150E00E944328F3E04F16F1F475
:1059F00082E38B8B94E09C8BF60186858D8B87856B
:105A00008E8B80898F8B8189888F86E3898F9A8F8F
:105A1000828D8B8F838D8C8F848D8D8F858D8E8FD6
:105A2000C501B8014CE050E00E94432887E38B8B0E
:105A300096E09C8B81E08D8B83E08E8B9F8B8FE03B
:105A4000888F8AE3898F8BE38A8F8FEF8B8FC501D5
:105A5000BE016D5E7F4F49E050E00E944328C501C2
:105A60000E945D28E2960FB6F894DEBF0FBECDBF50
:105A7000CF91DF911F910F91FF90EF90DF90CF902A
:105A8000BF90AF909F908F907F906F905F904F905E
:105A900008952F923F924F925F926F927F928F92D2
:105AA0009F92AF92BF92CF92DF92EF92FF920F93AD
:105AB0001F93DF93CF9300D000D0CDB7DEB78C011A
:105AC00061E070E080E090E020ED37E040E050E001
:105AD0000E941B30F80164837583868397836083FB
