:100000000C94A7010C9400270C942D270C946C24BD
:100010000C94CF010C94CF010C94CF010C94302D93
:100020000C94CF010C94CF010C94CF010C94CF0110
:100030000C94CF010C94CF010C94CF010C94CF0100
:100040000C945A270C94CF010C94EE280C9435296B
:100050000C94CF010C94CF010C94CF010C94CF01E0
:100060000C94CF010C94CF01096765746465763AEE
:100070000973686F777320746865206465766963B7
:10008000652049440A00097365746465763A09730A
:1000900065747320746865206465766963652049BA
:1000A00044202830202E2E20313020636861727366
:1000B000290A0009676574666565643A0973686FA3
:1000C00077732074686520434F534D2066656564DF
:1000D0002049440A0009736574666565643A0973CA
:1000E0006574732074686520434F534D20666565C1
:1000F000642049440A00097365746D61633A0973A9
:100100006574732074686520636869626920776923
:1001100072656C657373204D414320616464726540
:1001200073732830202E2E2046464646292E0A007C
:10013000096765746D61633A0973686F777320743A
:10014000686520636869626920776972656C6573A8
:1001500073204D414320616464726573732E0A00FD
:100160005573652074686520666F6C6C6F77696E77
:100170006720636F6D6D616E64733A0A0045525279
:100180004F52202D20546F6F206D616E792063686F
:10019000617261637465727320696E20446576696B
:1001A00063652049442E204D757374206265207567
:1001B0006E646572203130206368617261637465BA
:1001C00072732E0A00446576696365204944207382
:1001D000657420746F2025730A0044657669636531
:1001E0005F49443A0925730A004669726D77617266
:1001F000655F7665723A0925730A00466565642075
:1002000049442073657420746F2025750A00466583
:1002100065645F49443A0925750A004D41435F61B1
:100220006464726573732073657420746F20253065
:1002300034580A004D41435F616464726573733AD8
:1002400009253034580A0042554646455220465545
:100250004C4C2E20544F5353494E4720494E434F48
:100260004D494E4720444154410A004348494249C0
:100270003A20436F6D6D616E64206E6F74207265FD
:10028000636F676E697A65642E002A2A2A2A2A2AF1
:100290002A2A2A2A2A2A2A2A2A2043484942492045
:1002A0002A2A2A2A2A2A2A2A2A2A2A2A2A2A2A2AAE
:1002B0002A2A2A004348494249203E3E2000524112
:1002C00044494F204E4F5420494E495449414C49CE
:1002D0005A45442050524F5045524C590A00000094
:1002E0000000240027002A0000000000250028004C
:1002F0002B00000000002300260029000404040451
:1003000004040404020202020202030303030303BF
:10031000010204081020408001020408102001029C
:10032000040810200000000700020100000304067A
:10033000000000000000000002004009E90EFE1568
:10034000CD189D1B731DC91D922AEE2A390911244F
:100350001FBECFEFD8E0DEBFCDBF13E0A0E0B1E01D
:10036000E2E0F7E602C005900D92AA3FB107D9F787
:1003700016E0AAEFB3E001C01D92AC38B107E1F777
:1003800013E0CCE4D3E004C02297FE010E941A33AC
:10039000CA33D107C9F70E94672B0C9474330C94AD
:1003A0000000CF93DF93BC018230910510F462E02E
:1003B00070E0A0918206B0918306ED01E0E0F0E0EC
:1003C00040E050E021C0888199818617970769F441
:1003D0008A819B81309719F09383828304C0909324
:1003E000830680938206FE0134C06817790738F4CB
:1003F0004115510519F08417950708F4AC01FE0169
:100400008A819B819C01E9012097E9F641155105FC
:10041000A9F1CA01861B970B049708F4BA01E0E022
:10042000F0E02AC08D919C91119784179507F9F4FB
:100430006417750781F412968D919C9113973097EC
:1004400019F09383828304C090938306809382067D
:10045000FD0132964CC0CA01861B970BFD01E80FC7
:10046000F91F6193719302978D939C9340C0FD0196
:10047000828193819C01D9011097A1F68091800619
:1004800090918106892B41F480918303909184039C
:100490009093810680938006409185035091860356
:1004A0004115510541F44DB75EB78091810390919C
:1004B0008203481B590B2091800630918106CA01A6
:1004C000821B930B8617970780F0AB014E5F5F4F3F
:1004D0008417950750F0420F531F509381064093A5
:1004E0008006F9016193719302C0E0E0F0E0CF0172
:1004F000DF91CF910895CF93DF93009709F450C017
:10050000EC0122971B821A82A0918206B091830689
:10051000109709F140E050E0AC17BD0708F1BB832C
:10052000AA83FE0121913191E20FF31FAE17BF079D
:1005300079F48D919C911197280F391F2E5F3F4FB1
:100540003983288312968D919C9113979B838A837C
:100550004115510571F4D0938306C093820620C0E3
:1005600012968D919C911397AD01009711F0DC01CB
:10057000D3CFFA01D383C28321913191E20FF31FCC
:10058000CE17DF0769F488819981280F391F2E5F04
:100590003F4FFA01318320838A819B819383828339
:1005A000DF91CF910895A0E0B0E0E9EDF2E00C9486
:1005B0004533EC01A880B980CA80DB80A114B10466
:1005C000C104D10441F484E2A82E89EDB82E8BE554
:1005D000C82E87E0D82EC601B5012DE133EF41E0EA
:1005E00050E00E94FD3227EA31E440E050E00E94F2
:1005F000BC327B018C01C601B5012DE133EF41E036
:1006000050E00E94FD32CA01B9012CEE34EF4FEFE9
:100610005FEF0E94BC326E0D7F1D801F911F97FF00
:1006200004C06150704080409048688379838A8319
:100630009B839B01AC015F77B901CA01CDB7DEB7DF
:10064000EAE00C9461330E94D302089587E893E0B6
:100650000E94D30208956093870370938803809368
:10066000890390938A030895A0E0B0E0EAE3F3E001
:100670000C943F336C01009729F4CB010E94D10107
:100680006C01C1C08EEF882E8FEF982E8C0C9D1CB4
:100690008601060F171F0815190508F4B2C0F401EA
:1006A000A081B181A617B707B8F0A530B10508F44D
:1006B000AAC0CD0104978617970708F4A4C0129723
:1006C000A61BB70BF801A193B193D4016D937C9352
:1006D000CF010E947B0297C07B01EA1AFB0AEEEF72
:1006E000FFEFEE0EFF1E36016A0E7B1EC0918206E2
:1006F000D091830644245524AA24BB244AC0C6159D
:10070000D705E1F5488159814E155F05B8F1CA0159
:1007100004978E159F05B0F41296A40FB51FF4012F
:10072000B183A0832A813B814114510431F0D2016D
:1007300013963C932E93129766C0309383062093B2
:10074000820661C08A819B81F80193838283425033
:1007500050404E195F09518340834114510431F0D8
:10076000D20113961C930E93129704C01093830624
:1007700000938206F4017183608345C0888199816A
:10078000A816B90608F45C012E018A819B819C01A0
:10079000E901209709F0B3CF8091800690918106FE
:1007A00086159705E9F4A616B706D0F420918503BF
:1007B000309186032115310541F42DB73EB7809164
:1007C000810390918203281B390B02171307C8F489
:1007D0001093810600938006D4016D937C9313C01F
:1007E000CB010E94D101EC01009759F0F401408146
:1007F0005181B6010E945105C6010E947B026E0123
:1008000002C0CC24DD24C601CDB7DEB7E0E10C94F4
:100810005B332F923F925F926F927F928F929F9263
:10082000AF92BF92CF92DF92EF92FF920F931F93FE
:10083000CF93DF938C011B01EA016115710519F05B
:10084000FB0191838083209749F0CE010297839723
:1008500028F020E030E040E050E0F6C0F801A19040
:100860008F018A2D90E00E941E33892BB9F7FDE29B
:10087000AF1631F4F801A1908F015524539407C0AD
:10088000FBE2AF1619F4F801A1908F0155242097CF
:1008900019F0C031D105C1F4F0E3AF1679F4F801D5
:1008A0008081883711F0883549F4F801A1800E5F06
:1008B0001F4FF2E05F2AC0E1D0E006C0209721F48C
:1008C00080E3A816E9F427C0C830D10531F1C9305A
:1008D000D10524F4C230D10531F50CC0CA30D105A0
:1008E00089F0C031D105F9F4C12CD12CE12CB8E04C
:1008F000FB2E28C0C12CD12CE12CA0E4FA2E22C062
:10090000CAE0D0E0FCECCF2EFCECDF2EFCECEF2EAE
:10091000FCE0FF2E17C0C8E0D0E0C12CD12CE12CA8
:10092000E0E1FE2E0FC09E01442737FD4095542F75
:1009300060E070E080E090E80E94DB32C901DA01FB
:100940006C017D0120E030E040E050E060E03E01DD
:10095000882477FC8094982C70EDB72EBA0CE9E0CF
:10096000EB1570F48A2D81548A3118F499ECB92E64
:1009700006C08A2D81568A3150F589EAB82EBA0C04
:100980008B2D90E08C179D0714F56F3FE1F0C21698
:10099000D306E406F506B0F0CA01B901A40193013B
:1009A0000E94BC329B01AC012B0D311D411D511D1C
:1009B0002130F0E03F07F0E04F07F0E85F0710F468
:1009C00061E001C06FEFF801A1908F01C5CF211444
:1009D000310481F0662331F001501040F1011183A0
:1009E000008308C051FE1AC002501040F10111836B
:1009F000008314C067FF12C050FC05C02FEF3FEF0B
:100A00004FEF5FE704C020E030E040E050E882E2D2
:100A100090E090938B0680938A0616C050FE08C023
:100A200050954095309521953F4F4F4F5F4F0CC0EB
:100A300057FF0AC082E290E090938B0680938A066B
:100A40002FEF3FEF4FEF5FE7B901CA01DF91CF9181
:100A50001F910F91FF90EF90DF90CF90BF90AF90DC
:100A60009F908F907F906F905F903F902F90089510
:100A7000FB01DC0105900D920020E1F708954AEF9B
:100A800053E00E946A050895FB01DC0104C08D91CA
:100A90000190801921F441505040C8F7881B990BF0
:100AA0000895FB01DC0102C001900D9241505040BD
:100AB000D8F70895FB01DC018D9101908019011098
:100AC000D9F3990B0895FB01DC0101900D920020F0
:100AD000E1F70895009731F4DA018D919C91009728
:100AE00009F40EC0DC01FB013D912191222319F094
:100AF0003217C9F3FACF332331F4DA011D921C9275
:100B00008827992708951197AF93BF93FB013D91D3
:100B10002191321771F4332321F4882799271197F3
:100B200002C01E921196FA01A193B0839F918F91FA
:100B30000895222369F7EACFA0E0B0E0E2EAF5E009
:100B40000C9447337C01EB018A01690109C0CE0195
:100B50002196F6010995F70181937F01015010401C
:100B600001151105A1F7CDB7DEB7E8E00C946333AA
:100B7000A0E0B0E0EEEBF5E00C944733EC017B0134
:100B80008A01690109C0CE012196F70161917F01B7
:100B9000F60109950150104001151105A1F7CDB7D7
:100BA000DEB7E8E00C946333FB019F01E894423028
:100BB000C4F04532B4F44A3029F497FB1EF4909502
:100BC00081959F4F642F77270E942933805D8A3358
:100BD0000CF0895D8193CB010097A1F716F45DE2DB
:100BE00051931082C9010C944808FA01CF93FF93E6
:100BF000EF932230CCF02532BCF4C22F2C2F3327B8
:100C000044275527FF93EF930E94DB32EF91FF912A
:100C1000605D6A330CF0695D6193B901CA0160508F
:100C200070408040904051F710828F919F91CF91FA
:100C30000C944808A0E0B0E0E0E2F6E00C944D33FC
:100C4000FE0135966191719180918606909187069B
:100C5000AF010E9455062096E2E00C946933A0E0B3
:100C6000B0E0E5E3F6E00C944D33FE01359661917A
:100C70007191A0918606B091870613968C91139777
:100C8000886013968C938091860690918706AF01B9
:100C90000E945506E0918606F09187062381277F02
:100CA00023832096E2E00C946933ABE0B0E0EBE5FF
:100CB000F6E00C943D333C012B015A01FC011782F4
:100CC0001682838181FD03C06FEF7FEFC6C19AE07A
:100CD000892E1E010894211C311CF3012381F2018D
:100CE00023FD859123FF81912F01882309F4B2C14F
:100CF000853239F423FD859123FF81912F018532BF
:100D000029F490E0B3010E945808E7CF982FFF2400
:100D1000EE249924FFE1FF15D0F09B3269F09C325C
:100D200028F4903259F0933291F40EC09D3249F07C
:100D3000903369F441E024C052E0F52A84E0F82AB7
:100D400028C098E0F92A25C0E0E1FE2A22C0F7FC7D
:100D500029C0892F80538A3070F4F6FE05C0989C14
:100D6000902C1124980E15C0E89CE02C1124E80E5C
:100D7000F0E2FF2A0EC09E3229F4F6FC6BC140E47B
:100D8000F42A07C09C3619F450E8F52A02C09836B8
:100D900049F4F20123FD959123FF91912F019923AD
:100DA00009F0B8CF892F8554833018F080528330F2
:100DB00038F444E050E0A40EB51E5FE359830FC041
:100DC000933631F0933779F0933509F056C020C04F
:100DD000F5018081898342E050E0A40EB51E6101D7
:100DE00001E010E012C0F501C080D180F6FC03C024
:100DF0006FEF7FEF02C0692D70E042E050E0A40E7B
:100E0000B51EC6010E943D088C015FE7F52214C0A3
:100E1000F501C080D180F6FC03C06FEF7FEF02C008
:100E2000692D70E042E050E0A40EB51EC6010E949C
:100E300032088C0150E8F52AF3FE07C01AC080E2A0
:100E400090E0B3010E945808EA948E2D90E00817B4
:100E50001907A8F30EC0F601F7FC8591F7FE819102
:100E60006F0190E0B3010E945808E110EA9401502C
:100E700010400115110579F7EAC0943611F0993642
:100E800069F5F7FE08C0F501208131814281538167
:100E900084E090E00AC0F501808191819C014427A3
:100EA00037FD4095542F82E090E0A80EB91E9FE6D2
:100EB000F92257FF09C050954095309521953F4F35
:100EC0004F4F5F4FE0E8FE2ACA01B901A1012AE0B5
:100ED00030E00E948408D82ED21840C0953729F4FB
:100EE0001F2D1F7E2AE030E01DC01F2D197F9F3669
:100EF00061F0903720F4983509F0ACC00FC09037FE
:100F000039F0983709F0A6C004C028E030E00AC0E4
:100F1000106114FD146020E130E004C014FD16607F
:100F200020E132E017FF08C0F50160817181828104
:100F3000938144E050E008C0F50180819181BC01BB
:100F400080E090E042E050E0A40EB51EA1010E94B6
:100F50008408D82ED2188FE7F82EF122F6FE0BC0A7
:100F60005EEFF522D91438F4F4FE07C0F2FC05C098
:100F70008FEEF82202C01D2D01C0192DF4FE0DC008
:100F8000FE01ED0DF11D8081803319F499EEF922F7
:100F900008C01F5FF2FE05C003C08F2D867809F0E0
:100FA0001F5F0F2DF3FC14C0F0FE0FC01E1510F0D4
:100FB0009D2C0BC09D2C9E0C911A1E2D06C080E20C
:100FC00090E0B3010E9458081F5F1E15C0F304C0D3
:100FD0001E1510F4E11A01C0EE2404FF0FC080E3D7
:100FE00090E0B3010E94580802FF1DC001FD03C03C
:100FF00088E790E00EC088E590E00BC0802F8678EF
:1010000091F001FF02C08BE201C080E2F7FC8DE2AB
:1010100090E0B3010E94580806C080E390E0B3015D
:101020000E9458089A94D914C0F3DA94F101ED0D96
:10103000F11D808190E0B3010E945808DD20A9F7DE
:1010400006C080E290E0B3010E945808EA94EE20C6
:10105000C1F743CEF30166817781CB012B96E2E1A4
:101060000C945933FC010590615070400110D8F781
:10107000809590958E0F9F1F0895FC0161507040E0
:1010800001900110D8F7809590958E0F9F1F0895BD
:10109000DC01FC01672F71917723E1F7329704C0DF
:1010A0007C916D9370836291AE17BF07C8F308956A
:1010B0000F931F93CF93DF938C01EB018B8181FF03
:1010C0001BC082FF0DC02E813F818C819D8128171E
:1010D000390764F4E881F9810193F983E88306C054
:1010E000E885F985802F0995892B31F48E819F81C0
:1010F00001969F838E8302C00FEF1FEFC801DF911F
:10110000CF911F910F910895FA01AA27283051F12C
:10111000203181F1E8946F936E7F6E5F7F4F8F4F28
:101120009F4FAF4FB1E03ED0B4E03CD0670F781F87
:10113000891F9A1FA11D680F791F8A1F911DA11D6C
:101140006A0F711D811D911DA11D20D009F46894A5
:101150003F912AE0269F11243019305D3193DEF64D
:10116000CF010895462F4770405D4193B3E00FD003
:10117000C9F7F6CF462F4F70405D4A3318F0495DEE
:1011800031FD4052419302D0A9F7EACFB4E0A695D1
:101190009795879577956795BA95C9F700976105F3
:1011A000710508959B01AC010A2E06945795479549
:1011B00037952795BA95C9F7620F731F841F951F3E
:1011C000A01D08959C01F999FECF32BD21BDF89A6A
:1011D00080B508959C01F999FECF1FBA32BD21BD9B
:1011E00060BD0FB6F894FA9AF99A0FBE08958091EF
:1011F000240490912504019690932504809324045F
:1012000081E08093260408950F938130910531F594
:101210006F5F7F4F61F58FE294E060E040E020E097
:1012200000E00E94E22A8CEF93E06DEA4BEC22E6AC
:101230000DE10E94E22A82E094E06AE04BE02CE0BB
:101240000DE00E94E22A88E094E00E94541B85E1B0
:1012500094E060E071E00E94FC3009C0892B39F411
:101260006F5F7F4F21F485E194E00E942F310F9151
:10127000089580E090E06FEF7FEF0E9404090895E9
:1012800081E090E06FEF7FEF0E940409089500D0A5
:1012900080E691E0EDB7FEB7928381830E942F062E
:1012A00080E391E0EDB7FEB7928381830E942F0621
:1012B00086EF90E0EDB7FEB7928381830E942F0600
:1012C00085ED90E0EDB7FEB7928381830E942F06F3
:1012D00083EB90E0EDB7FEB7928381830E942F06E7
:1012E00086E890E0EDB7FEB7928381830E942F06D7
:1012F00088E690E0EDB7FEB7928381830E942F06C7
:101300000F900F90089500D000D08AED91E0EDB7D6
:10131000FEB7928381838BE394E0948383830E945E
:101320002F060F900F900F900F90089500D000D0CF
:1013300089EE91E0EDB7FEB7928381838BE993E06C
:10134000948383830E942F060F900F900F900F902D
:10135000089500D000D000D08EE092E0EDB7FEB747
:10136000928381838091370490913804A09139044D
:10137000B0913A0483839483A583B6830E942F0699
:101380008DB79EB706960FB6F8949EBF0FBE8DBF61
:10139000089500D000D084E392E0EDB7FEB79283C9
:1013A00081838091350490913604948383830E94D5
:1013B0002F060F900F900F900F90089500D000D03F
:1013C00084E392E0EDB7FEB7928381838091350488
:1013D00090913604948383830E942F0600D08EE080
:1013E00092E0EDB7FEB792838183809137049091AC
:1013F0003804A0913904B0913A0483839483A5837F
:10140000B6830E942F060F900F908AED91E0EDB702
:10141000FEB7928381838BE394E0948383830E945D
:101420002F060F900F900F900F900E94960908952D
:101430000F931F93FB0162817381FB01DF010D900C
:101440000020E9F71197AE1BBF0BAA30B10528F5B4
:101450000BE314E09D012F5F3F4FC801A9010E94DB
:10146000510580E090E0B8016650704044E250E0E1
:101470002AEE38E00E94B80500D000D085EC91E05B
:10148000EDB7FEB792838183148303830E942F06F6
:101490000F900F900F900F900BC000D08DE791E050
:1014A000EDB7FEB7928381830E942F060F900F90B5
:1014B0001F910F910895FB018281938160E070E09C
:1014C0004AE050E00E9409046093370470933804A6
:1014D0008093390490933A0480E090E065E374E0EF
:1014E00044E250E02AEE38E00E94B80500D000D077
:1014F00000D08BEF91E0EDB7FEB7928381838091AE
:10150000370490913804A0913904B0913A04838350
:101510009483A583B6830E942F068DB79EB7069647
:101520000FB6F8949EBF0FBE8DBF0895FB01828158
:10153000938160E070E040E150E00E940904709304
:1015400036046093350480E090E065E374E044E2A3
:1015500050E02AEE38E00E94B80500D000D08BE1C0
:1015600092E0EDB7FEB7928381838091350490912C
:101570003604948383830E942F060F900F900F9060
:101580000F900895EF92FF920F931F937B018C01B0
:101590000E94AE27A8019701261B370B480B590B59
:1015A000E616F7060807190720F4209530954095B0
:1015B0005095B901CA011F910F91FF90EF900895C6
:1015C0008F929F92AF92BF92CF92DF92EF92FF9253
:1015D0000F931F93CF93DF934C017A018B01CB01C3
:1015E000BA010E949A315B016C01B501882777FD31
:1015F0008095982F0E94CD319B01AC01C801B701A5
:101600000E9435312FE632E143E05AE30E94363141
:1016100020E030E04AE754E40E9459320E949A31B7
:10162000EB01C401B5010E948830C40161E071E0A2
:101630000E94B930CA30D10524F4C40163E071E0DE
:1016400006C0C436D1052CF4C40166E071E00E94E6
:10165000B930C401BE010E948830DF91CF911F9143
:101660000F91FF90EF90DF90CF90BF90AF909F9041
:101670008F900895AF92BF92CF92DF92EF92FF9238
:101680000F931F93DF93CF9300D000D000D0CDB73E
:10169000DEB75B016C0186E496E00E94AB2B86E42A
:1016A00096E068E071E00E949E2C88EF93E09A83B8
:1016B00089838091FE039091FF03A0910004B09173
:1016C00001048B839C83AD83BE8388E094E0BE01DC
:1016D0006F5F7F4F40E550E00E948D1C892B09F41D
:1016E000B3C086E496E068E371E00E949E2C0E94FD
:1016F000AE27609327047093280480932904909365
:101700002A0410925A04C601B50120912B0430918D
:101710002C0440912D0450912E040E9459327B01DB
:101720008C0185E194E067E571E00E94163185E166
:1017300094E0B601A5010E94E00A85E194E06AE523
:1017400071E00E94B93085E194E0A701B8010E94E0
:10175000E00A85E194E06EE571E00E94B9300E94F4
:10176000AE2728EE33E040E050E00E94DB3285E116
:1017700094E0BA01A9010E94563086E496E063E63F
:1017800071E00E949E2C86E496E065E174E00E9480
:10179000E42C86E496E064E971E00E949E2C88E0E7
:1017A00094E06AEC71E00E949B2C409137045091C8
:1017B00038046091390470913A0488E094E02AE09A
:1017C00030E00E945D2C88E094E069ED71E00E94B9
:1017D0009E2C88E094E063EE71E00E949E2C88E0ED
:1017E00094E067EF71E00E949E2C88E094E06DE049
:1017F00072E00E949B2C60918B0370918C0388E0B7
:1018000094E00E949E2C88E094E06FE172E00E94D8
:101810009B2C6091190470911A0488E094E04AE0CE
:1018200050E00E946C2C88E094E060E372E00E943B
:101830009E2C88E094E00E94AB2B88E094E065E168
:1018400074E00E94E42C28C020915A042F5F20935A
:101850005A04233018F081E08093590400D000D05E
:1018600087E492E0EDB7FEB79283818383E090E056
:10187000821B9109948383830E941A060F900F9014
:101880000F900F900E94AE27609327047093280456
:101890008093290490932A0426960FB6F894DEBF0D
:1018A0000FBECDBFCF91DF911F910F91FF90EF90B1
:1018B000DF90CF90BF90AF90089580915904813010
:1018C00009F0A8950E94DA268DE794E00E94F918A5
:1018D00088E094E00E94611C892B49F088E094E044
:1018E0000E94451C682F86E496E00E94A32B0E946C
:1018F000AE2788E094E00E94B51B8823E9F0609150
:101900002704709128048091290490912A040E9450
:10191000C20A615177428040904070F086E496E0C0
:101920000E94AB2B86E496E062E672E00E949E2C59
:1019300088E094E00E94D91B80912604882301F15D
:10194000109226048091930368EE73E020E030E06B
:1019500040E050E00E948C2D8091950361E00E9450
:10196000992864E170E080E090E00E94BC278091BB
:10197000950360E00E949928809193030E94192D9D
:1019800060912704709128048091290490912A0481
:101990000E94C20A20911C0430911D0440911E0433
:1019A00050911F046217730784079507D0F086E4EF
:1019B00096E00E94AB2B86E496E061E772E00E941D
:1019C0009E2C6091240470912504882777FD8095D2
:1019D000982F0E94CD3110922504109224040E9469
:1019E0003A0B08950F931F93DF93CF93CDB7DEB7D4
:1019F0002C970FB6F894DEBF0FBECDBF8091930336
:101A000061E00E945A288091950361E00E945A2863
:101A10008091930364EF71E020E030E040E050E01B
:101A20000E948C2D64EF71E080E090E00E94BC2762
:101A3000809193030E94192D809193036CED75E0C2
:101A400020E030E040E050E00E948C2D64EF71E037
:101A500080E090E00E94BC27809193030E94192DA2
:101A60008091930364EF71E020E030E040E050E0CB
:101A70000E948C2D64EF71E080E090E00E94BC2712
:101A8000809193030E94192D8FEA9EE09093640445
:101A900080936304109266041092650482E0809340
:101AA0005E0410926804109267048BE594E09093B2
:101AB00087068093860660E071EE80E090E00E94E9
:101AC000C7258091990361E00E945A28809199036B
:101AD00061E00E9499288091970361E00E945A2852
:101AE0008091970361E00E94992864E170E080E0B2
:101AF00090E00E94BC278091970360E00E949928A3
:101B000064E170E080E090E00E94BC278091970340
:101B100061E00E9499288DE792E069EC79E00E94EB
:101B2000B32584E892E066E97AE00E94B3258BE869
:101B300092E069EA79E00E94B32583E992E06BE5DF
:101B40007AE00E94B3258BE992E063E879E00E9495
:101B5000B32582EA92E068E17AE00E94B32589EA3F
:101B600092E06EED79E00E94B3258EEA92E067E4A0
:101B700079E00E94B32585E394E060E070E044E200
:101B800050E022EE38E00E949C0510925A04109218
:101B9000590429E288E190E00FB6F894A895809363
:101BA00060000FBE209360008CEA9BE8ABEDBBE3C6
:101BB00080932B0490932C04A0932D04B0932E04B7
:101BC00086E496E063EB72E00E949E2C86E496E049
:101BD00068EC72E00E949E2C8091930364EF71E0A8
:101BE00020E030E040E050E00E948C2D64E670E0A0
:101BF00080E090E00E94BC27809193030E94192D01
:101C0000809193036CED75E020E030E040E050E01F
:101C10000E948C2D62E370E080E090E00E94BC277F
:101C2000809193030E94192D8091930364EF71E0DA
:101C300020E030E040E050E00E948C2D64E670E04F
:101C400080E090E00E94BC27809193030E94192DB0
:101C500080E090E060E070E00E94DE0986E496E0BB
:101C60006EEE72E00E949E2C8DE794E06DE873E0CA
:101C70000E94B51A892BF9F486E496E067E073E0D8
:101C80000E949E2C88EF93E09A83898380910404BC
:101C900090910504A0910604B09107048B839C8366
:101CA000AD83BE838DE794E06DE873E0AE014F5FD6
:101CB0005F4F0E947D1A86E496E06FE273E00E9417
:101CC0009B2C8E01095F1F4FC8016DE774E00E94D5
:101CD000DC1886E496E0B8010E94CB2B81E067EF28
:101CE00078E043E050E00E94DD2680E69AEEA0E036
:101CF000B0E080931C0490931D04A0931E04B09345
:101D00001F040E94AE2720911C0430911D044091B5
:101D10001E0450911F04260F371F481F591F209380
:101D20002004309321044093220450932304A89567
:101D300086E496E06AE373E00E949E2C86E496E0D7
:101D400064E971E00E949E2C2C960FB6F894DEBFD9
:101D50000FBECDBFCF91DF911F910F910895682FD6
:101D600086E496E00E94592A80E090E008958DE094
:101D700061E00E945A288BE061E00E945A288AE0C4
:101D800061E00E945A288DE060E00E9499288BE073
:101D900060E00E9499288AE061E00E9499288CB551
:101DA00080618CBD8CB580648CBD0895FB0180E39F
:101DB0008083842F82958F704F704A3014F4405D79
:101DC00001C0495C41833197882311F0482FF1CF3E
:101DD00008950F9389E694E060E040E020E000E0A1
:101DE0000E94E22A0F9108950F931F938C01625E67
:101DF0007F4F0E944C2BC8011F910F9108950F93A4
:101E00001F938C016A5E7F4F0E944C2BC8011F916B
:101E10000F9108950F931F938C016E5E7F4F0E9468
:101E20004C2BC8011F910F9108950F931F938C01A4
:101E3000625F7F4F0E944C2BC8011F910F91089544
:101E40002F923F924F925F926F927F928F929F92CA
:101E5000AF92BF92CF92DF92EF92FF920F931F93B8
:101E6000DF93CF93CDB7DEB7E8970FB6F894DEBF18
:101E70000FBECDBF5C013A014B0129010E94AE2784
:101E80007B018C01F7E4CF2ED12CCA0CDB1C14C0D3
:101E90000E94AE276E197F09800B910B661677069C
:101EA0008806990618F477247A941AC262E370E0DF
:101EB00080E090E00E94BC27C6010E943D1E1816DB
:101EC000190634F7C601BE01635F7F4F42E250E05E
:101ED0000E94EF1D8D85823009F0FEC12CE530E0B7
:101EE000A20EB31EF5018081918124EA3FEFA20E7C
:101EF000B31E8334910509F0EFC129893A894B89D2
:101F00005C89E52EFF2400271127B22FAA279927E5
:101F10008827E82AF92A0A2B1B2BB42FA32F922FEC
:101F2000882780709070B070E82AF92A0A2B1B2B42
:101F3000232F342F452F5527207040705070E22AF0
:101F4000F32A042B152BF201E082F1820283138322
:101F5000B501685F7F4FCE01899646E050E00E9450
:101F60004405009799F4F50180819181A281B381A4
:101F7000E816F9060A071B0748F084819581A681B7
:101F8000B7818E159F05A007B10728F4C6010E94EE
:101F9000B71D7724A5C18D8D9E8DAF8DB8A1F5019C
:101FA00086879787A08BB18B00E010E0C6010E9466
:101FB000121E0F5F1F4F0E3C1105C1F795012E5EDB
:101FC0003F4F38AF2FABC50146969EAB8DABF501A9
:101FD0007E96FCABEBAB8AE1882E912C8A0C9B1C85
:101FE00095012A5D3F4F3AAB29ABC5018A9698AB64
:101FF0008FA702E2202E312C2A0C3B1C772418E5F7
:10200000412E512C4A0C5B1C5FC1C6010E94121E5E
:102010008333910509F414C1843391058CF4813024
:10202000910569F18230910524F4892B09F44CC1A2
:1020300040C18330910551F1069709F03AC142C081
:102040008A33910509F490C08B3391053CF48533B4
:10205000910569F0C69709F02CC150C08B339105EA
:1020600009F4B8C08F3F910509F023C12DC1C60105
:102070000E94121EC6010E94121E782E25C1C601A2
:102080000E94121EC6016FA978AD62C0C6010E94EF
:10209000121E182FC6016DA97EA944E050E00E94CF
:1020A000EF1DEE24FF24012F10E00450104006C065
:1020B000C6010E94121E0894E11CF11CE016F106F4
:1020C000BCF302C1C6010E94121E182FC6016BA9E3
:1020D0007CA944E050E00E94EF1DEE24FF24012F74
:1020E00010E00450104006C0C6010E94121E089461
:1020F000E11CF11CE016F106BCF3E6C0C6010E942B
:10210000121E182FF40180819181A281B381009762
:10211000A105B105D9F0CE010196B4010E944C2B66
:1021200028EF33E038872F83F2012081318142810B
:10213000538129873A874B875C878B819C81AD814E
:10214000BE8182179307A407B50759F4C601B401ED
:1021500044E050E00E94EF1DB7C0C6010E94121E6D
:1021600011501123D1F7B0C0C6010E94121EC60142
:1021700069A97AA944E050E00E94EF1DF50126A16B
:1021800037A140A551A5E52EFF2400271127B22F26
:10219000AA2799278827E82AF92A0A2B1B2BB42F6C
:1021A000A32F922F882780709070B070E82AF92AA8
:1021B0000A2B1B2B232F342F452F552720704070BF
:1021C0005070E22AF32A042B152BE6A2F7A200A7EF
:1021D00011A77AC0C6010E94121EC6016FA578A978
:1021E00044E050E00E94EF1DF50122A533A544A56F
:1021F00055A5E52EFF2400271127B22FAA279927DE
:102200008827E82AF92A0A2B1B2BB42FA32F922FF9
:10221000882780709070B070E82AF92A0A2B1B2B4F
:10222000232F342F452F5527207040705070E22AFD
:10223000F32A042B152BE2A6F3A604A715A744C086
:10224000C6010E94121EC601B10144E050E00E9486
:10225000EF1DF50122A133A144A155A1E52EFF24D4
:1022600000271127B22FAA2799278827E82AF92AB9
:102270000A2B1B2BB42FA32F922F882780709070CE
:10228000B070E82AF92A0A2B1B2B232F342F452F55
:102290005527207040705070E22AF32A042B152B2A
:1022A000E2A2F3A204A315A3E6A6F7A600AB11AB26
:1022B0000BC0C6010E94121E182F04C0C6010E9446
:1022C000121E11501123D1F7C6010E949B1D181632
:1022D00019060CF49ACE01C07724C6010E94B71DDE
:1022E000872DE8960FB6F894DEBF0FBECDBFCF9115
:1022F000DF911F910F91FF90EF90DF90CF90BF90F3
:10230000AF909F908F907F906F905F904F903F9095
:102310002F9008950E96FC0184E1DF011D928A95AD
:10232000E9F708954F925F926F927F928F929F92FA
:10233000AF92BF92CF92DF92EF92FF920F931F93D3
:10234000DF93CF93CDB7DEB7E2970FB6F894DEBF39
:102350000FBECDBF6C01462E3A01F3E18F2E912CBA
:102360008C0E9D1EE0E25E2EF401252D11922A9521
:10237000E9F7CE0107966FEF4FEF2FEF0FEF0E94B7
:10238000E22A77E4A72EB12CAC0CBD1C88EF93E0B9
:102390009E878D8789859A85AB85BC858F87988B2D
:1023A000A98BBA8BC501BE01635F7F4F43E450E048
:1023B0000E94B11E8F5F9F4F09F4F3C081E08B8BA9
:1023C0008C8B86E08D8B1E8AF601248135814681B7
:1023D0005781E52EFF2400271127B22FAA2799271E
:1023E0008827E82AF92A0A2B1B2BB42FA32F922F18
:1023F000882780709070B070E82AF92A0A2B1B2B6E
:10240000232F342F452F5527207040705070E22A1B
:10241000F32A042B152BEB82FC820D831E83EF8A9B
:10242000F88E098F1A8F7B8E6C8E80E890E09A83ED
:1024300089839E8F8D8FC501B4014CE150E00E94CD
:10244000911EF40111925A94E9F7A8E06A2E712CBA
:102450006C0C7D1CD401F30186E001900D9281503B
:10246000E1F78E010D5E1F4FC501B80140E150E05C
:102470000E94911E80E2F80111928A95E9F7EE24FC
:10248000FF24902E012FC501692D702F40E250E0EE
:102490000E94911E0894E11CF11CF6E0EF16F10475
:1024A00091F793E69B8B82E88C8B83E58D8B9E8BDB
:1024B00085E38F8B91E0988F498E8DE38A8F87E03B
:1024C0008B8F9C8FDE015D96F30186E001900D926B
:1024D0008150E1F78CE08BA38CA38E010D5E1F4F22
:1024E000CE01859665E773E00E946305C601BE01D3
:1024F000655D7F4FF60143850E94D60EC601BE0181
:10250000635D7F4FF60144850E94D60EC601BE0171
:10251000615D7F4FF60145850E94D60EC501B80169
:102520004EE150E00E94911EF3E04F16F1F482E379
:102530008B8B94E09C8BF60186858D8B87858E8BAB
:1025400080898F8B8189888F86E3898F9A8F828D8E
:102550008B8F838D8C8F848D8D8F858D8E8FC50114
:10256000B8014CE050E00E94911E87E38B8B96E00F
:102570009C8B81E08D8B83E08E8B9F8B8FE0888F8F
:102580008AE3898F8BE38A8F8FEF8B8FC501BE0122
:102590006D5E7F4F49E050E00E94911EC5010E9490
:1025A000AC1EE2960FB6F894DEBF0FBECDBFCF9142
:1025B000DF911F910F91FF90EF90DF90CF90BF9030
:1025C000AF909F908F907F906F905F904F90089505
:1025D0002F923F924F925F926F927F928F929F9233
:1025E000AF92BF92CF92DF92EF92FF920F931F9321
:1025F000DF93CF9300D000D0CDB7DEB78C0161E080
:1026000070E080E090E020ED37E040E050E00E9494
:10261000C42FD80114966C93149715967C93159734
:1026200016968C93169717969C9317976C93119602
:102630007C93119712968C93129713969C9377E440
:10264000272E312C200E311EC10164E470E00E945F
:10265000551F882319F46624772422C10E94AE27CF
:102660004B015C016624772466E4C62ED12CC00E93
:10267000D11E5EE3452E512C400E511E42E0E42E49
:10268000FBC0882309F5F80184819581A681B78173
:102690000196A11DB11D84839583A683B7830E94F3
:1026A000AE27681979098A099B0928EE33E040E0D2
:1026B00050E00E94DB32C80161E0A9010E94921142
:1026C00081E0D6018C93C2C0843001F5F801848189
:1026D0009581A681B7810196A11DB11D8483958343
:1026E000A683B7830E94AE27681979098A099B09D6
:1026F00028EE33E040E050E00E94DB32C80163E0A6
:10270000A9010E949211D601EC92A0C0813069F516
:10271000F2014081518162817381C8019E012F5F66
:102720003F4F0E94200FF82EF2E08F1709F089C06A
:1027300089819A81AB81BC81F80184839583A683CA
:10274000B7830E94AE27681979098A099B0928EE88
:1027500033E040E050E00E94DB32C80163E0A901B1
:102760000E949211D601FC9271C0823009F06EC0B5
:10277000F2014081518162817381C8019E012F5F06
:102780003F4F0E94200FF82EF5E08F1709F053C03D
:10279000E3E0D601EC93F80182A193A1A4A1B5A135
:1027A0000097A105B10541F484E893E0A0E0B0E012
:1027B00082A393A3A4A3B5A3F80186A197A1A0A582
:1027C000B1A50097A105B10561F482A193A1A4A1CF
:1027D000B5A1B695A7959795879586A397A3A0A72A
:1027E000B1A7F80182A593A5A4A5B5A50097A10559
:1027F000B10561F486A197A1A0A5B1A5880F991F85
:10280000AA1FBB1F82A793A7A4A7B5A7F80186A1FB
:1028100097A1A0A5B1A586A797A7A0ABB1AB82A5AC
:1028200093A5A4A5B5A582AB93ABA4ABB5ABA1E032
:102830006A2E712C0BC0F6E08F1719F4D6011C928A
:1028400005C0BFEFFB1611F4F6011082F1E06F1620
:10285000710491F00E94AE27681979098A099B09D1
:10286000D801DA962D913D914D915C91DD97261717
:1028700037074807590728F0F6018081833009F0AF
:1028800000CFC1010E94401FF80184819581A6817B
:10289000B7810196A11DB11D84839583A683B7835B
:1028A000C3010F900F900F900F90CF91DF911F9168
:1028B0000F91FF90EF90DF90CF90BF90AF909F90DF
:1028C0008F907F906F905F904F903F902F900895E2
:1028D0004F925F926F927F928F929F92AF92BF9230
:1028E000CF92DF92EF92FF920F931F93CF93DF93DC
:1028F000EC010E94AE275B016C018EA99FA9A8ADD7
:10290000B9AD12E4412E512C4C0E5D1E0097A1056D
:10291000B10509F4A3C0F20180819181A281B38144
:1029200035014601681A790A8A0A9B0A97FC5BC03E
:10293000F8EEEF2EF3E0FF2E012D112DEA0CFB1C1B
:102940000C1D1D1DC401B30128EE33E040E050E032
:102950000E94FD32E61AF70A080B190BD201ED921C
:10296000FD920D931C931397C401B30128EE33E03D
:1029700040E050E00E94FD32C901DA010196A11D3C
:10298000B11D2EA53FA548A959A93C014D01660CD2
:10299000771C881C991C26153705480559052CF409
:1029A0001EA61FA618AA19AA08C0281B390B4A0B75
:1029B0005B0B2EA73FA748AB59AB2AA93BA94CA953
:1029C0005DA926153705480559052CF41AAA1BAA36
:1029D0001CAA1DAA08C0281B390B4A0B5B0B2AAB8B
:1029E0003BAB4CAB5DABFE01EA5BFF4F80818330BC
:1029F00091F48EA59FA5A8A9B9A9181619061A06BB
:102A00001B064CF084E08083CE010E94E8129C01FA
:102A10002F5F3F4F02C020E030E0CA5BDF4F88816C
:102A2000C654D040833011F0882381F58AA99BA930
:102A3000ACA9BDA9181619061A061B063CF1CA5BFB
:102A4000DF4F1882C654D040CE010E948A11CE01B9
:102A50000E94E8129C012D5F3F4F18C088EE93E062
:102A6000A0E0B0E0A80EB91ECA1EDB1ED201AD92D6
:102A7000BD92CD92DC92139788E19CEFAFEFBFEF50
:102A8000A80EB91ECA1EDB1E20E030E0AEAABFAA07
:102A9000C8AED9AEC901DF91CF911F910F91FF90C0
:102AA000EF90DF90CF90BF90AF909F908F907F90EE
:102AB0006F905F904F900895CF92DF92EF92FF92C8
:102AC0000F931F93CF93DF93EC01D62EC72E1AA23C
:102AD0001BA21CA21DA21EA21FA218A619A61AA6FE
:102AE0001BA61CA61DA61EAA1FAA18AE19AE2AAFA9
:102AF0003BAF4CAF5DAFEE96E882F9820A831B8351
:102B0000EE978E01085F1F4F86E0F80111928A95BB
:102B1000E9F7CE010E948A11D8012D2D3C2DC90163
:102B2000FC0186E001900D928150E1F7CA5BDF4F16
:102B30001882C654D040CE010E94E812DF91CF9196
:102B40001F910F91FF90EF90DF90CF9008959C011F
:102B5000FB0182819381A481B581F90182839383F2
:102B6000A483B583178216820895CF93DF93FB0168
:102B700001C0319680818823E1F7EB01A0E0B0E04D
:102B800020E030E021C06E3261F42F3F310509F0C2
:102B90007CF5FA01EA0FFB1F2283119620E030E05A
:102BA00012C0C901E3E0880F991FEA95E1F7220FEF
:102BB000331F820F931F262F332727FD3095205375
:102BC0003040280F391F21966881662319F0A43000
:102BD000B105CCF22F3F310509F054F4A430B10512
:102BE0003CF4A40FB51F12962C9321E030E002C0F4
:102BF00020E030E0C901DF91CF9108950F938FE677
:102C000094E060E040E020E000E00E94E22A0F91C2
:102C100008952F923F924F925F926F927F928F9280
:102C20009F92AF92BF92CF92DF92EF92FF920F935B
:102C30001F93DF93CF93CDB7DEB769970FB6F894A4
:102C4000DEBF0FBECDBF4C018B011A010E94AE2723
:102C50002B013C01F8E0EF2EF12CE80CF91C580197
:102C6000CC24DD2414C00E94AE276419750986099E
:102C70009709A616B706C806D90618F42FEF3FEF36
:102C80000BC162E370E080E090E00E94BC27C701C6
:102C90000E943D1E1816190634F7F4012281338173
:102CA00044815581818D928DA38DB48D8A879B87B8
:102CB000AC87BD87281739074A075B0709F0EAC0C8
:102CC000858D968DC59709F0E5C000C18E01025F24
:102CD0001F4FC701B8014CE050E00E94EF1DF80102
:102CE000528143815B834A83F401268137818E853B
:102CF0009F852817390711F457FD06C0C7010E94A8
:102D0000B71D2CEF3FEFC8C04F705270452B31F00C
:102D1000C7010E94B71D2BEF3FEFBEC0F8017680C0
:102D200067806114710441F0AA24BB2448012E017C
:102D30000894411C511C28C0C7010E94B71D2AEFEE
:102D40003FEFAAC0C701B20141E050E00E94EF1D71
:102D50008981882321F408C0C7010E94121E89813D
:102D6000815089838F5FC1F78981882359F700E0FB
:102D700010E0C7010E94121E0F5F1F4F04301105A3
:102D8000C1F70894A11CB11CF401D480C580AC1417
:102D9000BD04C0F244245524C701BE016F5F7F4FBC
:102DA00041E050E00E94EF1D9981892F807C61F401
:102DB000992321F40DC0C7010E94121E8981815000
:102DC00089838F5FC1F704C0C7010E94121E198258
:102DD0008981882309F7C701BE016C5F7F4F42E0FC
:102DE00050E00E94EF1DC701BE016A5F7F4F42E0C5
:102DF00050E00E94EF1D00E010E0C7010E94121E8B
:102E00000F5F1F4F04301105C1F7C701BE016E5F90
:102E10007F4F42E050E00E94EF1DDC80CD80F1E06A
:102E2000CF16D10419F5BE80AF8081E0A816B10499
:102E3000E9F49A818B81049731F0C7010E94B71D94
:102E400027EF3FEF29C0E2E0F0E02E0E3F1EC70162
:102E5000B10144E050E00E94EF1D21E030E01CC0D1
:102E6000C7010E94121E0F5F1F4F02C000E010E05A
:102E70009A808B800815190598F30894411C511C01
:102E80004614570408F488CFC7010E94B71D26EFE7
:102E90003FEF02C02EEF3FEFC90169960FB6F894DD
:102EA000DEBF0FBECDBFCF91DF911F910F91FF907D
:102EB000EF90DF90CF90BF90AF909F908F907F90DA
:102EC0006F905F904F903F902F90089588EF93E020
:102ED00099878887C7010E949B1D0C970CF0F6CE3E
:102EE0002DEF3FEFD9CF6F927F928F929F92AF924B
:102EF000BF92CF92DF92EF92FF920F931F93DF93D7
:102F0000CF9300D00F92CDB7DEB78C01F62EE72E0F
:102F10000E94AE27F80177836683B8E0CB2ED12CD0
:102F2000C00ED11E0A5F1F4FC601B80142E050E03B
:102F30000E94911E81E090E09B838A83A2E08A2E0A
:102F4000912C8C0E9D1EC601B40142E050E00E94FF
:102F5000911E80E091E09B838A83C601B40142E028
:102F600050E00E94911E1B821A82C601B40142E009
:102F700050E00E94911EC601B40142E050E00E9460
:102F8000911EC601B40142E050E00E94911E2F2D17
:102F90003E2DC9018C017C013E010894611C711C0D
:102FA00020C00894E11CF11CF7018081882311F0F6
:102FB0008E32B9F75701A01AB10A1A141B0474F41F
:102FC0008E2D801B8983C601B30141E050E00E9431
:102FD000911EC601B801A5010E94911E87010F5FD5
:102FE0001F4FF7018081882311F07801DDCF19820E
:102FF000C601BE016F5F7F4F41E050E00E94911E0D
:1030000000E011E01B830A83C601B40142E050E0F6
:103010000E94911E1B830A83C601B40142E050E066
:103020000E94911E81E090E00F900F900F90CF9141
:10303000DF911F910F91FF90EF90DF90CF90BF90A5
:10304000AF909F908F907F906F9008958F929F92F6
:10305000AF92BF92CF92DF92EF92FF920F931F93A6
:10306000DF93CF9300D000D000D0CDB7DEB76C0196
:103070007B014A010E94B515892B19F001E010E08F
:1030800067C0F601228133814481558180917104AA
:1030900090917204A0917304B091740428173907B9
:1030A0004A075B0719F40EEF1FEF52C018E0A12E7C
:1030B000B12CAC0CBD1C0E94AE279B01AC012F7043
:1030C000307020503C4FC501B9010E94551F81301E
:1030D00019F000E010E03CC088EF93E09A83898308
:1030E000F60182819381A481B5818B839C83AD831A
:1030F000BE83C501BE016F5F7F4F45E350E00E9474
:10310000B11E8C01009709F1C601B7010E94731727
:103110008C010097D1F0C5010E94AC1E8C01009774
:10312000A1F0EE24FF24C60168E873E1A4010E9427
:1031300009168C010894E11CF11CF3E0EF16F10470
:1031400021F08FEF0F3F180771F3C5010E94401F58
:10315000C80126960FB6F894DEBF0FBECDBFCF9143
:10316000DF911F910F91FF90EF90DF90CF90BF9074
:10317000AF909F908F900895DB01FC0128EF33E022
:103180003183208312962D913D914D915C9115973D
:10319000228333834483558308950F9385E894E015
:1031A00060E040E020E000E00E94E22A8DE794E049
:1031B0000E945D2B0F910895EF92FF920F931F9342
:1031C000182F092FE82EF92EC7010E945D2B82E0EF
:1031D00090E0E80EF91E8FE090E0B70144E050E087
:1031E0000E94C722812F902F1F910F91FF90EF9087
:1031F0000895EF92FF920F931F93DF93CF93CDB774
:10320000DEB768970FB6F894DEBF0FBECDBF8C0156
:10321000FC0186819781009719F4EE24FF244BC0AE
:103220000E9468147C018230910529F084E0E81640
:10323000F10409F040C0F80166817781CE01019662
:103240000E94150F8FE090E0BE016D5F7F4F44E05C
:1032500050E00E949B21F80166817781CE0107969C
:103260000E94FF0E81E090E0BE01675F7F4F44E067
:1032700050E00E949B21F80166817781CE010D9676
:103280000E940A0F85E090E0BE01615F7F4F44E03D
:1032900050E00E949B21F80166817781CE01439620
:1032A0000E94F40E8D899E89AF89B88DF8018283C2
:1032B0009383A483B583C70168960FB6F894DEBFE5
:1032C0000FBECDBFCF91DF911F910F91FF90EF9077
:1032D00008956F927F928F929F92AF92BF92CF92FA
:1032E000DF92EF92FF920F931F933C015B016A0103
:1032F00049018FE994E00E94862389E090E0B501BE
:1033000046E050E00E949B2182E090E0C80ED91E6A
:103310008FE090E0B60144E050E00E949B210E5FF8
:103320001F4F81E090E0B80144E050E00E949B21F3
:10333000E2E0F0E0EE0EFF1E85E090E0B70144E031
:1033400050E00E949B21F40182819381A481B58188
:10335000F30182839383A483B5831F910F91FF9020
:10336000EF90DF90CF90BF90AF909F908F907F9025
:103370006F9008956F927F928F929F92AF92BF92BB
:10338000CF92DF92EF92FF920F931F93DF93CF9331
:10339000CDB7DEB76E970FB6F894DEBF0FBECDBFC8
:1033A0004C013B017A0169015801CE0101966FEF92
:1033B0004FEF2FEF00E00E94E22A28EF33E038873A
:1033C0002F83F70182819381A481B58189879A87B0
:1033D000AB87BC873E872D87F60182819381A481CC
:1033E000B5818F87988BA98BBA8B3C8B2B8BF50182
:1033F00082819381A481B5818D8B9E8BAF8BB88F99
:103400003A8F298F8B819C81AD81BE818B8F9C8F60
:10341000AD8FBE8FC401B301AE01495F5F4F9E0106
:10342000235F3F4F8E010D5E1F4FE9E1EE2EF12C21
:10343000EC0EFD1E0E9469196E960FB6F894DEBF61
:103440000FBECDBFCF91DF911F910F91FF90EF90F5
:10345000DF90CF90BF90AF909F908F907F906F90B4
:1034600008950F931F93DF93CF93CDB7DEB768977F
:103470000FB6F894DEBF0FBECDBFFA01D90122818D
:103480003381448155812B833C834D835E83E8EFF8
:10349000F3E0F887EF8329873A874B875C87FE87BD
:1034A000ED8712962D913D914D915C9115972F8747
:1034B000388B498B5A8BFC8BEB8B21E02E832B8135
:1034C0003C814D815E812D8B3E8B4F8B588FAE01A1
:1034D000495F5F4F9E01235F3F4F8E010D5E1F4F7F
:1034E0000E94BA1968960FB6F894DEBF0FBECDBF22
:1034F000CF91DF911F910F910895DF93CF93CDB7B7
:10350000DEB762970FB6F894DEBF0FBECDBFFA01EB
:1035100022813381448155812B833C834D835E839B
:10352000E8EFF3E0F887EF8329873A874B875C87DA
:10353000FE87ED8721E02E832B813C814D815E81CA
:103540002F87388B498B5A8BAE01495F5F4F9E01A5
:10355000235F3F4F0E94311A62960FB6F894DEBF88
:103560000FBECDBFCF91DF910895CF92DF92EF9242
:10357000FF920F931F93DF93CF93CDB7DEB76E9774
:103580000FB6F894DEBF0FBECDBF6C017B0182E6A3
:1035900090E00E94762B8C01895B9F4F0E94BA1E9F
:1035A000F601178306838FE994E00E94862389E061
:1035B00090E0B70146E050E00E949B21CE010196C9
:1035C00060E040E020E000E00E94E22A8FE090E02E
:1035D000BE016D5F7F4F44E050E00E949B21F601E9
:1035E00086819781B70120E63AEE40E050E0F0EAAC
:1035F000EF2EFFE0FF2E012D112D0E945C158C0196
:103600008130910509F040C0F60166817781CE01D5
:1036100007960E94150F8FE090E0BE01675F7F4F15
:1036200044E050E00E949B21F60166817781CE0143
:103630000D960E94FF0E81E090E0BE01615F7F4F1A
:1036400044E050E00E949B21F60166817781CE0123
:1036500043960E940A0F85E090E0BE016B5E7F4FAB
:1036600044E050E00E949B21F60166817781CE0103
:1036700049960E94F40E8B8D9C8DAD8DBE8DF6010A
:1036800082839383A483B583C8016E960FB6F894A2
:10369000DEBF0FBECDBFCF91DF911F910F91FF9085
:1036A000EF90DF90CF900895FC011382128288EE94
:1036B00093E0A0E0B0E084839583A683B78388EA93
:1036C00093E09183808384E084870895DF93CF9390
:1036D0000F92CDB7DEB7FC016983A081B18112964C
:1036E0002D913C911397BE016F5F7F4F41E050E0F9
:1036F000F90109950F90CF91DF910895CF93DF9352
:10370000EC0107C0E881F9810680F781E02DCE0148
:103710000995E881F9810480F581E02DCE010995B4
:10372000892B81F7DF91CF91089520E0FC018485FA
:10373000843009F021E0822F08950F938BE894E004
:1037400060E040E020E000E00E94E22A0F9108954E
:10375000FC018485843011F480E00895982F80E086
:103760008D5F9B4F0E94C2210895CF93DF93EC01A0
:103770008C85843011F480E019C0CE010E94A81B12
:10378000843191F0882381F0883171F08C3151F4CB
:10379000E881F9810480F581E02DCE01099520E0D2
:1037A000892B19F021E001C020E0822FDF91CF9119
:1037B0000895EF92FF920F931F93CF93DF93EC0145
:1037C0008C85843089F10E94901F0E94AE277B0176
:1037D0008C01CE010E94A81B882301F10E94AE2714
:1037E0006E197F09800B910B685E7340804090409A
:1037F000A8F461E070E080E090E00E94BC27E9CF8F
:103800008C850E94CC1FEC85F0E0EE0FFF1FEB587B
:10381000FB4F1182108284E08C8706C0CE010E948B
:10382000A81B882381F3ECCFDF91CF911F910F91DB
:10383000FF90EF9008950F931F93DF93CF930F9214
:10384000CDB7DEB78C01DC01ED91FC910480F581F0
:10385000E02D0995892B19F42FEF3FEF0AC0F801ED
:103860008485BE016F5F7F4F0E9431218981282F9F
:1038700030E0C9010F90CF91DF911F910F91089512
:10388000FC0184850E9440210895DF93CF930F921D
:10389000CDB7DEB7FC018485BE016F5F7F4F41E08D
:1038A00050E00E944021181619061CF02FEF3FEF40
:1038B00003C08981282F30E0C9010F90CF91DF919B
:1038C0000895FC016485643019F420E030E005C0FF
:1038D0008FE994E00E9478229C01C90108950F931A
:1038E0001F93CF93DF938C01EA01FC018485843020
:1038F00019F481E090E007C00E94DA20892B39F4A6
:1039000081E090E0F80193838283C0E0D0E0CE01B3
:10391000DF91CF911F910F910895AF92BF92CF92F7
:10392000DF92EF92FF920F931F93CF93DF937C016F
:103930006B015A01FC018485843009F056C0C0E057
:10394000D0E003E014E0C8010E94C221882321F0E6
:10395000883111F08C3119F4F701C48706C0219623
:1039600000501F4FC430D10571F7F7012485243072
:10397000E1F18091A1039091A20301969093A2039B
:103980008093A103892B31F480E094E09093A2030B
:103990008093A1034091A1035091A203822F61E083
:1039A00020E00E940B2082E090E0C80ED91EF701B3
:1039B0008485B601A5010E946F2009C061E070E016
:1039C00080E090E00E94BC27C7010E94A81B8823CA
:1039D00021F484E0F701848708C0C7010E94A81B76
:1039E000873161F721E030E002C020E030E0C9011A
:1039F000DF91CF911F910F91FF90EF90DF90CF90CB
:103A0000BF90AF9008956F927F928F929F92AF92E6
:103A1000BF92CF92DF92EF92FF920F931F93DF93AB
:103A2000CF93CDB7DEB7E5970FB6F894DEBF0FBEE4
:103A3000CDBF4C015B013A0193E1E92EF12CEC0E74
:103A4000FD1EC7010E945D2BCE014B960E94BA1E3F
:103A50006E010894C11CD11CC6010E945D2B8E0111
:103A6000095F1F4FC8016DE774E00E94BC18C701D1
:103A7000B8010E94A715C701B501A6010E9426182A
:103A80009C0181309105C9F4D401ED91FC9104842D
:103A9000F585E02D88EF93E09E878D878B819C8153
:103AA000AD81BE818F87988BA98BBA8BC401BE0173
:103AB000635F7F4FA30109959C01C901E5960FB68D
:103AC000F894DEBF0FBECDBFCF91DF911F910F9154
:103AD000FF90EF90DF90CF90BF90AF909F908F902E
:103AE0007F906F9008950F9381E994E060E040E04B
:103AF00020E000E00E94E22A0F910895DC01ED91A0
:103B0000FC91008CF18DE02D09950895DB01FC01FD
:103B100028EF33E03183208351962D913D914D91D3
:103B20005C91549722833383448355830895FC0129
:103B3000858996890895FC01818D928D0895DF9382
:103B4000CF930F92CDB7DEB7FC016983A081B1811D
:103B500012962D913C911397BE016F5F7F4F41E00C
:103B600050E0F90109950F90CF91DF910895CF931F
:103B7000DF93EC0107C0E881F9810680F781E02D31
:103B8000CE010995898D9A8D892BA9F7DF91CF9167
:103B900008950F9387E994E060E040E020E000E0C2
:103BA0000E94E22A0F910895DF93CF930F92CDB731
:103BB000DEB7FC01818D928D892B19F42FEF3FEF39
:103BC00009C08485BE016F5F7F4F0E9431218981CA
:103BD000282F30E0C9010F90CF91DF910895CF9346
:103BE000DF93EC019A01498D5A8D41155105A1F0E1
:103BF0002417350710F08C8502C08C85A9010E941E
:103C000040219C01181619063CF4898D9A8D821B5F
:103C1000930B9A8F898F02C02FEF3FEFC901DF917D
:103C2000CF9108950F931F93DF93CF930F92CDB74A
:103C3000DEB78C01FC01818D928D892BA9F08485E2
:103C4000BE016F5F7F4F41E050E00E944021181697
:103C5000190654F4F801818D928D0197928F818F0E
:103C60008981282F30E002C02FEF3FEFC9010F906C
:103C7000CF91DF911F910F910895EF92FF920F93D3
:103C80001F93DF93CF93CDB7DEB728970FB6F89485
:103C9000DEBF0FBECDBF8C01DC01ED91FC91028433
:103CA000F385E02D09958FE994E0F80164850E9481
:103CB0007822892B19F420E030E025C0D8011C9629
:103CC0008C917E010894E11CF11CB70148E050E0A2
:103CD0000E9440219C0118161906ACF4C8010F96E9
:103CE000B7010E943F2B9D8180E02E81820F911DA4
:103CF000F801968B858B9F8180E02885820F911D2E
:103D0000928F818F9C01C90128960FB6F894DEBF6F
:103D10000FBECDBFCF91DF911F910F91FF90EF901C
:103D200008950F931F938C01FB019A01DC015796B4
:103D30006D917C9158971C968C91AF010E94AA209E
:103D40009C01F8018789908D820F931F908F878B3C
:103D5000C9011F910F910895FC0184850E94A81F3D
:103D60000895FC01108E178A6E5F7F4F84850E9434
:103D700044200895FC011382128288EE93E0A0E0B3
:103D8000B0E084839583A683B78384EC93E091832A
:103D9000808384E08487CF010F960E945D2B089575
:103DA0006F927F928F929F92AF92BF92CF92DF924B
:103DB000EF92FF920F931F93DF93CF93CDB7DEB7B0
:103DC000E5970FB6F894DEBF0FBECDBF4C015B0187
:103DD0003A0183E1E82EF12CEC0EFD1EC7010E9492
:103DE0005D2BCE014B960E94BA1E6E010894C11C39
:103DF000D11CC6010E945D2B8E01095F1F4FC801B7
:103E00006DE774E00E94BC18C701B8010E94A715B5
:103E1000C701B501A6010E9426189C0181309105B9
:103E2000C9F4D401ED91FC910088F189E02D88EF6F
:103E300093E09E878D878B819C81AD81BE818F872A
:103E4000988BA98BBA8BC401BE01635F7F4FA3011E
:103E500009959C01C901E5960FB6F894DEBF0FBE27
:103E6000CDBFCF91DF911F910F91FF90EF90DF9029
:103E7000CF90BF90AF909F908F907F906F9008955C
:103E8000CF93DF93EC018C85843061F00E94CC1FCE
:103E9000EC85F0E0EE0FFF1FEB58FB4F1182108214
:103EA00084E08C87DF91CF910895CF92DF92EF92DB
:103EB000FF920F931F93CF93DF937C016B01FC0163
:103EC0008485843019F5C0E0D0E003E014E0C80137
:103ED0000E94C221882311F0883119F4F701C487A8
:103EE00006C0219600501F4FC430D10581F7F7015D
:103EF0008485843059F0D686C586128E118E62E094
:103F0000A60120E00E940B2081E001C080E0DF914B
:103F1000CF911F910F91FF90EF90DF90CF90089578
:103F2000682F8FE994E048E050E00E9474230895E0
:103F300090E0982F88278E5F9B4F0E94C2210895A2
:103F400090E0982F88278E5F9B4F0E9481210895D3
:103F50001F93182F8FE994E0612F40E250E00E94F8
:103F600074230CC0812F0E94981F83FF07C0812FEC
:103F700068E10E94A01F20E030E00BC0812F0E946A
:103F8000981F84FFEFCF812F60E10E94A01F21E0E6
:103F900030E0C9011F9108951F93182F8FE994E015
:103FA000612F40E150E00E947423812F6FEF0E9447
:103FB000A01F1F910895FF920F931F93F62E672F56
:103FC000082F10E00C5F1F4F102F0027C8014096EC
:103FD0000E948121C80141966F2D0E9481211F916D
:103FE0000F91FF900895FF920F931F93F62E672F66
:103FF000082F10E00C5F1F4F102F0027C8010496F8
:104000000E948121C80105966F2D0E9481211F9178
:104010000F91FF900895FF920F931F93CF93DF931B
:10402000082FF62EEA01122F862F8150853010F0CE
:1040300080E024C0802F0E94CC1F1F2980E0902F99
:104040009C5F612F0E948121209719F0802FBE0173
:104050000BC060919D0470919E046F5F7F4F7093C1
:104060009E0460939D04802F0E94F31F8FE994E0CB
:10407000602F41E050E00E94742381E0DF91CF91F6
:104080001F910F91FF9008951F93CF93DF93182FE7
:10409000FB01EA018081882349F48181882331F47E
:1040A0008281882319F48381882391F0209781F0FD
:1040B000912F80E0845F9B4FBF0144E050E00E945D
:1040C0009B21812FBE010E94DB1F21E030E002C056
:1040D00020E030E0C901DF91CF911F9108951F9337
:1040E000CF93DF93182FFB01EA0180818F3F51F4BA
:1040F00081818F3F91F482818F3F79F483818F3F5B
:1041000061F423C0882349F48181882331F48281BA
:10411000882319F483818823C1F02097B1F0912F6F
:1041200080E0845F9B4FBF0144E050E00E949B21F0
:10413000812FBE010E94DB1F8FE994E0612F44E0D4
:1041400050E00E94742381E001C080E0DF91CF91B4
:104150001F910895AF92BF92DF92EF92FF920F935B
:104160001F93CF93DF93D82EEB015A0189018FE97A
:1041700094E06D2D0E94AB228017910710F078011A
:1041800006C08FE994E06D2D0E94AB227C018FE97F
:1041900094E06D2DAE01950187010E94E421C701D5
:1041A000DF91CF911F910F91FF90EF90DF90BF9023
:1041B000AF900895AF92BF92DF92EF92FF920F936C
:1041C0001F93CF93DF93D82E5B018A0188E04130A3
:1041D000580710F000E018E0DD2DC0E0CD5FDB4FA8
:1041E0008FE994E06D2D0E94AB227C01CE010E94EC
:1041F000C221873129F08C3119F000E010E003C0B2
:10420000E016F10668F38FE994E06D2DA5019801A1
:104210000E9455228FE994E06D2D40E250E00E940B
:1042200074230BC0CE010E94C221882331F48D2D4E
:104230000E94CC1F00E010E009C08D2D0E94981F45
:1042400084FFF0CF8D2D60E10E94A01FC801DF9197
:10425000CF911F910F91FF90EF90DF90BF90AF90A3
:1042600008950F93282FAB018FE994E0622F21E08E
:1042700030E001E00E94292381E090E00F91089551
:10428000CF92DF92FF920F931F93CF93DF93F82E7D
:104290006B018A018FE994E06F2D0E947822EC0176
:1042A000009769F49F2D80E08D5F9B4F0E94C22193
:1042B0008431D9F08823C9F08C31B9F01FC00817B8
:1042C00019070CF4E8011C161D067CF48FE994E034
:1042D0006F2DA6019E0100E00E9429238FE994E042
:1042E0006F2D40E450E00E947423CE01DF91CF9106
:1042F0001F910F91FF90DF90CF900895CFEFDFEFE8
:10430000F4CF282F2A9880EF8EBD0DB407FEFDCF85
:104310008EB59EBD0DB407FEFDCF8EB52EBD0DB47E
:1043200007FEFDCF8EB56EBD0DB407FEFDCF8EB579
:104330002A9A81E00895DC0120E030E090EF1DC072
:104340002A989EBD0DB407FEFDCF8EB5BEBD0DB43F
:1043500007FEFDCF8EB5AEBD0DB407FEFDCF8EB509
:10436000FB01E20FF31F80818EBD0DB407FEFDCF70
:1043700011968EB52A9A2F5F3F4F2417350700F309
:10438000CA010895282F2A988FE08EBD0DB407FE2C
:10439000FDCF8EB59EBD0DB407FEFDCF8EB52EBDF3
:1043A0000DB407FEFDCF8EB51EBC0DB407FEFDCFCC
:1043B0008EB52A9A089590E00496982F8827860F44
:1043C000971F0E94C22108957F928F929F92AF9271
:1043D000BF92CF92DF92EF92FF920F931F93CF93F2
:1043E000DF936C01762E7A0149015801862F64E231
:1043F00070E00E94DB21182F872D65E270E00E949B
:10440000DB21C82FD0E0912F80E0C82BD92BCE0D17
:10441000DF1DAE015770872D90E0880F991FC80EE1
:10442000D91EF60120813181240F351FCA018A0D62
:104430009B1D8150984098F000E018E0041B150B7C
:10444000C901B401A8010E949B21A501401B510B89
:10445000F60180819181080D191DB80103C0C901C1
:10446000B401A5010E949B217E01EA0CFB1C072DD3
:1044700010E00C5F1F4F102F0027C80184966F2D8E
:104480000E948121C80185966E2D0E948121DF91B5
:10449000CF911F910F91FF90EF90DF90CF90BF9041
:1044A000AF909F908F907F9008950F931F93FA0184
:1044B000890140E050E09F010E94E4211F910F918B
:1044C00008950F931F93182F66E270E00E94DB217E
:1044D000082F812F67E270E00E94DB21502F40E01F
:1044E000282F30E0242B352BC9011F910F910895FF
:1044F000FF920F931F93CF93DF93F62EC0E0D0E08F
:104500008F2D0E9461228C01009721F08F2D0E9437
:104510006122EC01C017D10799F7CE01DF91CF914D
:104520001F910F91FF9008950F931F93182F60E232
:1045300070E00E94DB21082F812F61E270E00E9471
:10454000DB21502F40E0282F30E0242B352BC901F0
:104550001F910F910895FF920F931F93CF93DF93B5
:10456000F62EC0E0D0E08F2D0E9494228C0100979F
:1045700021F08F2D0E949422EC01C017D10799F7EA
:10458000CE01DF91CF911F910F91FF900895DC0133
:1045900020E030E09FE01DC02A989EBD0DB407FECC
:1045A000FDCF8EB5BEBD0DB407FEFDCF8EB5AEBD41
:1045B0000DB407FEFDCF8EB51EBC0DB407FEFDCFBA
:1045C00011968EB5FB01E20FF31F80832A9A2F5FAD
:1045D0003F4F2417350700F3CA010895CF92DF92A9
:1045E000EF92FF920F931F93CF93DF9369017801AE
:1045F0005770C62FD0E02496CC0FDD1FC80FD91FEF
:1046000028813981240F351FC801840F951F8150DF
:10461000984088F000E018E0041B150BC901B601B2
:10462000A8010E94C722E01AF10A888199810C0D25
:104630001D1DB80102C0C901B601A7010E94C72211
:10464000DF91CF911F910F91FF90EF90DF90CF906E
:1046500008958F929F92AF92BF92CF92DF92EF9286
:10466000FF920F931F93CF93DF937C01A62E6A01D5
:104670004901B02E862F68E270E00E94DB21182FDE
:104680008A2D69E270E00E94DB21C82FD0E0912FD3
:1046900080E0C82BD92BC7016A2DAE019601840199
:1046A0000E94EE22BB2099F47E01E80CF91C0A2D31
:1046B00010E00C5F1F4F102F0027C80188966F2D48
:1046C0000E948121C80189966E2D0E948121DF916F
:1046D000CF911F910F91FF90EF90DF90CF90BF90FF
:1046E000AF909F908F9008951F93162F962F80E084
:1046F0008F5F9B4F642F0E948121812F61E070E0CA
:104700000E94DB218823C9F71F9108950F931F93FF
:10471000182F092F6CE271E080E090E00E94BC2726
:104720000E94B70E229A80E090E060E80E9481210A
:104730008BE190E065E50E9481218AE190E065E5EA
:104740000E948121212F302FC901FC0180E090E4DB
:10475000918380838050904E9187808780509841CC
:10476000329620E68030920799F71F910F910895B5
:1047700020919A0530E0F901E65EFA4F80832F5FC1
:104780003F4F2F77307020939A05809119058F5FE6
:10479000809319050895DF93CF930F92CDB7DEB7BD
:1047A00080689FB79983F89443988EBD0DB407FE37
:1047B000FDCF8EB58EBD0DB407FEFDCF8EB5439AED
:1047C00099819FBF0F90CF91DF910895FF920F9332
:1047D0001F93DF93CF930F92CDB7DEB7182FF62E2E
:1047E000042F0E94CB23982F106C8FB78983F894E5
:1047F00043981EBD0DB407FEFDCF8EB5802F80956A
:1048000089230F21802B8EBD0DB407FEFDCF8EB501
:10481000439A89818FBF0F90CF91DF911F910F91A4
:10482000FF900895CF93DF93EC01CE010E941528ED
:104830002197D9F7DF91CF9108950F931F93082FF8
:10484000429B02C084E445C081E00E94CB23182F24
:104850001F71812F8151823020F0113011F0123000
:1048600031F481E00E94CB238F718117D1F306319F
:1048700079F0093151F00830B1F4429886E090E0C7
:104880000E94122482E063E007C0163161F402C086
:10489000193149F482E069E04FE10E94E62381E0AA
:1048A00090E00E94122482E0602F4FE10E94E623F4
:1048B000183011F081E001C084EB90E00E941224D6
:1048C00081E00E94CB238F71801711F083E401C037
:1048D00080E41F910F9108951F920F920FB60F92CF
:1048E0001124AF92BF92CF92DF92EF92FF920F937B
:1048F0001F932F933F934F935F936F937F938F9368
:104900009F93AF93BF93EF93FF93DF93CF93CDB775
:10491000DEB7E497DEBFCDBF8FB78983F8941E9BC7
:10492000BCC043988FE88EBD0DB407FEFDCF8EB599
:104930001EBC0DB407FEFDCF0EB5439A20E2E22E59
:1049400090E8A92EB12C83E0C82ED12CCC0EDD1E10
:10495000A1C002FF02C00B7F9DC003FF7EC081E0AB
:104960000E94CB238F71863029F0863119F0813176
:1049700009F069C087E00E94CB238093AE0586E0F2
:104980000E94CB23881F8827881F8093AF05882328
:1049900009F45CC08FB78A83F8944398EEBC0DB4D9
:1049A00007FEFDCF8EB51EBC0DB407FEFDCFFEB4D5
:1049B0008F2D83508D37B8F52F2D30E0809119055C
:1049C000A501481B51092417350714F080E016C0D3
:1049D0008F2D0E94B82310E008C01EBC0DB407FE46
:1049E000FDCF8EB50E94B8231F5F1F15B0F31BC00B
:1049F0001EBC0DB407FEFDCF9EB58F5F8F15C0F3B3
:104A00008091A8059091A90501969093A90580939E
:104A1000A805C60167E472E00E94380586E496E0C6
:104A2000B6010E949B2C439A8A818FBF8091A0057A
:104A30009091A10501969093A1058093A00581E036
:104A400080939E0503C081E080939F0586E10E94CC
:104A50001D248034D9F7077F1DC006FF0BC00F7BD4
:104A60008091AA059091AB0501969093AB05809338
:104A7000AA0510C001FF02C00D7F0CC000FF02C0DC
:104A80000E7F08C007FF06C00F778091AC058F5FCF
:104A90008093AC05002309F05CCF89818FBFE49639
:104AA000DEBFCDBFCF91DF91FF91EF91BF91AF916D
:104AB0009F918F917F916F915F914F913F912F9136
:104AC0001F910F91FF90EF90DF90CF90BF90AF902C
:104AD0000F900FBE0F901F901895CF92DF92EF921C
:104AE000FF920F931F93F82EE92E6B0186E090E062
:104AF0000E94D1018093AF049093B004EF2DFE2D5E
:104B0000DF010D900020E9F7CD018E1B9F0B0E9465
:104B1000D1018C016F2D7E2D0E946305AF2DBE2D1E
:104B2000FD0101900020E9F73197EA1BFB0BE00F34
:104B3000F11F1082E091AF04F091B0041183008363
:104B4000D382C2828091B1049091B2049583848310
:104B5000F093B204E093B1041F910F91FF90EF9096
:104B6000DF90CF9008950E946D250895AB01BC01A0
:104B700085EB94E09093B4048093B3041092B20454
:104B80001092B10486E496E00E94702908950E9474
:104B9000B6250895EF92FF920F931F93DF93CF9363
:104BA000CDB7DEB7E2970FB6F894DEBF0FBECDBF2C
:104BB00056E4E52E56E0F52EC7010E94AB2B8E0180
:104BC0000F5F1F4FC8016AE872E00E943805C701F5
:104BD000B8010E949E2CC80164EB72E00E94380567
:104BE000C701B8010E949B2CE2960FB6F894DEBF75
:104BF0000FBECDBFCF91DF911F910F91FF90EF902E
:104C000008954F925F926F927F928F929F92AF9290
:104C1000BF92CF92DF92EF92FF920F931F93DF9399
:104C2000CF93CDB7DEB7CE56D0400FB6F894DEBFE7
:104C30000FBECDBFE5EB4E2EE4E05E2E75E3672E92
:104C4000712C6C0E7D1E5E010894A11CB11C63E3E7
:104C5000862E912C8C0E9D1E8EC086E496E00E94BE
:104C60001E2A182F883009F45FC0E091B304F09138
:104C7000B4048D3009F06CC0108286E496E06CE7D5
:104C800073E00E949B2C85EB94E06FE773E00E9439
:104C90003F059CAB8BAB730101E010E0D02EC12E21
:104CA00080E090E06FE773E00E943F05D7018D93AD
:104CB0009C930E31110541F00F5F1F4FE2E0F0E0D1
:104CC000EE0EFF1E892B51F70091AF041091B00436
:104CD000EBA8FCA815C0D8016D917C91C7010E947A
:104CE0005A05009751F4D8011296ED91FC91139753
:104CF0008D2D9C2DB401099510C0F80104811581FA
:104D00000115110541F7C5016BE672E00E943805F7
:104D100086E496E0B5010E949E2C0E94CA2550921E
:104D2000B4044092B30427C086E496E068E00E9491
:104D3000A32B8091B3049091B404F4E0853B9F07CA
:104D4000D1F0C8F001979093B4048093B30413C0DA
:104D5000E55BF440E336F10574F486E496E0612FF8
:104D60000E94A32BE091B304F091B4041193F0934B
:104D7000B404E093B30486E496E00E94ED29892B05
:104D800009F06BCFC259DF4F0FB6F894DEBF0FBEEC
:104D9000CDBFCF91DF911F910F91FF90EF90DF90EA
:104DA000CF90BF90AF909F908F907F906F905F90CB
:104DB0004F9008950E9401260895823000F5E82F53
:104DC000F0E0EE0FFF1FEF54FA4F718360838823EA
:104DD00019F08130A1F408C0809169008C7F842B88
:104DE00080936900E89A089580916900440F551FE7
:104DF000440F551F837F842B80936900E99A08959F
:104E00001F920F920FB60F9211242F933F934F933F
:104E10005F936F937F938F939F93AF93BF93EF9322
:104E2000FF938091B1059091B205892B29F0E09113
:104E3000B105F091B2050995FF91EF91BF91AF9146
:104E40009F918F917F916F915F914F913F912F91A2
:104E50000F900FBE0F901F9018951F920F920FB6D4
:104E60000F9211242F933F934F935F936F937F93F0
:104E70008F939F93AF93BF93EF93FF938091B3056D
:104E80009091B405892B29F0E091B305F091B40518
:104E90000995FF91EF91BF91AF919F918F917F9174
:104EA0006F915F914F913F912F910F900FBE0F9097
:104EB0001F9018951F920F920FB60F9211242F93E7
:104EC0003F934F935F936F937F938F939F93AF9392
:104ED000BF932091B9053091BA054091BB0550911F
:104EE000BC057091BD05DA01C9010296A11DB11D75
:104EF000672F6A5F6D3730F06D57DA01C90103968D
:104F0000A11DB11D6093BD058093B9059093BA05AD
:104F1000A093BB05B093BC058091B5059091B605F3
:104F2000A091B705B091B8050196A11DB11D809360
:104F3000B5059093B605A093B705B093B805BF919A
:104F4000AF919F918F917F916F915F914F913F9121
:104F50002F910F900FBE0F901F9018958FB7F89458
:104F60002091B9053091BA054091BB055091BC051F
:104F70008FBFB901CA0108959B01AC017FB7F894B6
:104F80008091B5059091B605A091B705B091B8058F
:104F900066B5A89B05C06F3F19F00196A11DB11D14
:104FA0007FBFBA2FA92F982F8827860F911DA11D8B
:104FB000B11D63E0880F991FAA1FBB1F6A95D1F727
:104FC000BC012DC0FFB7F8948091B5059091B6054E
:104FD000A091B705B091B805E6B5A89B05C0EF3F15
:104FE00019F00196A11DB11DFFBFBA2FA92F982F4F
:104FF00088278E0F911DA11DB11DE3E0880F991F19
:10500000AA1FBB1FEA95D1F7861B970B885E9340BA
:10501000C8F2215030404040504068517C4F21152B
:1050200031054105510571F60895019739F0019751
:1050300029F0880F991F01970197F1F70895789447
:1050400084B5826084BD84B5816084BD85B582608D
:1050500085BD85B5816085BDEEE6F0E0808181602B
:105060008083E1E8F0E0108280818260808380812B
:1050700081608083E0E8F0E0808181608083E1EB03
:10508000F0E0808184608083E0EBF0E080818160EB
:105090008083EAE7F0E080818460808380818260A1
:1050A000808380818160808380818068808310928A
:1050B000C1000895CF93DF93482F50E0CA01805F6D
:1050C0009C4FFC01349144505D4FFA018491882338
:1050D00069F190E0880F991FFC01E252FD4FA59104
:1050E000B491FC01E851FD4FC591D491662351F470
:1050F0002FB7F8948C91932F909589238C93888166
:1051000089230BC0623061F42FB7F8948C91932FF0
:10511000909589238C938881832B88832FBF06C029
:105120009FB7F8948C91832B8C939FBFDF91CF9185
:105130000895482F50E0CA018C5D9C4FFC012491DA
:10514000CA01805F9C4FFC01949144505D4FFA016D
:105150003491332309F440C0222351F1233071F0FC
:10516000243028F42130A1F0223011F514C026306B
:10517000B1F02730C1F02430D9F404C08091800010
:105180008F7703C0809180008F7D8093800010C056
:1051900084B58F7702C084B58F7D84BD09C08091AE
:1051A000B0008F7703C08091B0008F7D8093B000F6
:1051B000E32FF0E0EE0FFF1FE851FD4FA591B491F2
:1051C0002FB7F894662321F48C919095892302C01F
:1051D0008C91892B8C932FBF089508951F920F9265
:1051E0000FB60F9211242F933F934F938F939F935A
:1051F000EF93FF934091C6002091FE053091FF058B
:105200002F5F3F4F2F733070809100069091010601
:105210002817390759F0E091FE05F091FF05E25497
:10522000FA4F40833093FF052093FE05FF91EF91E5
:105230009F918F914F913F912F910F900FBE0F90A3
:105240001F901895E0915206F0915306E05CFF4FD5
:105250008191919120813181821B930B8F7390708A
:10526000892B11F00E94ED2808951F920F920FB61E
:105270000F9211242F933F938F939F93EF93FF935C
:105280002091420630914306809144069091450654
:105290002817390731F48091C1008F7D8093C100B8
:1052A00014C0E0914406F0914506EE5FF94F20816D
:1052B000809144069091450601968F73907090936B
:1052C0004506809344062093C600FF91EF919F917D
:1052D0008F913F912F910F900FBE0F901F901895B7
:1052E000AF92BF92DF92EF92FF920F931F93CF93F3
:1052F000DF93EC017A018B01DD24D39491E0A92E98
:10530000B12CEC89FD89DD2069F0C5010E8C02C04D
:10531000880F991F0A94E2F7808360E874E88EE1B1
:1053200090E005C0108260E472E48FE090E0A80194
:1053300097010E94DB32215030404040504056954A
:1053400047953795279580E12030380720F0DD20FC
:1053500011F0DD24D6CFE889F9893083EA89FB8909
:105360002083EE89FF89408121E030E0C9010A8C69
:1053700002C0880F991F0A94E2F7482B4083EE89F8
:10538000FF894081C9010B8C02C0880F991F0A94C4
:10539000E2F7482B4083EE89FF894081C9010C8CDC
:1053A00002C0880F991F0A94E2F7482B4083EE89C8
:1053B000FF8980810D8C02C0220F331F0A94E2F70F
:1053C000209528232083DF91CF911F910F91FF908B
:1053D000EF90DF90BF90AF900895DC011C96ED91A7
:1053E000FC911D97E05CFF4F21913191808191816B
:1053F000281B390B2F733070C9010895DC011C96EE
:10540000ED91FC911D97E05CFF4F20813181E054CC
:10541000F040DF01AE5BBF4F8D919C911197281733
:10542000390719F42FEF3FEF07C08D919C91E80FDA
:10543000F91F8081282F30E0C9010895DC011C96F6
:10544000ED91FC911D97E05CFF4F20813181E0548C
:10545000F040DF01AE5BBF4F8D919C9111972817F3
:10546000390719F42FEF3FEF10C08D919C911197E0
:10547000E80FF91F20818D919C91119701968F73F0
:10548000907011969C938E9330E0C9010895FC01B1
:1054900086859785DC01A05CBF4FFC01EE5BFF4F6A
:1054A0002D913C9111978081918128173907C1F77F
:1054B0000895CF93DF93EC01EE85FF85E05CFF4F0D
:1054C00020813181E054F0402F5F3F4F2F733070C7
:1054D000DF01AE5BBF4F8D919C9111972817390763
:1054E000D1F3E05CFF4F80819181E054F040E80F00
:1054F000F91F6083EE85FF85E05CFF4F31832083D9
:10550000EE89FF89208181E090E00D8C02C0880F38
:10551000991F0A94E2F7282B208381E090E0DF9125
:10552000CF910895109249061092480688EE93E0B4
:10553000A0E0B0E080934A0690934B06A0934C06FF
:10554000B0934D0688EE93E090934706809346060D
:105550008EEB95E0909353068093520682E096E09E
:10556000909355068093540685EC90E090935706EF
:105570008093560684EC90E09093590680935806E9
:1055800080EC90E090935B0680935A0681EC90E06B
:1055900090935D0680935C0686EC90E090935F06A6
:1055A00080935E0684E08093600683E080936106CA
:1055B00087E08093620685E08093630681E08093B4
:1055C000640608950F93FC0188EF93E09183808334
:1055D00062834383248305830F91089588EF93E0CA
:1055E000909366068093650610926706109268068F
:1055F0001092690610926A0608958F929F92AF9258
:10560000BF92CF92DF92EF92FF920F931F93CF93AF
:10561000DF934C016B017C01AA24BB24C0E0D0E0E5
:10562000C601F70162814AE050E00E94892C8C019A
:10563000C6016EE20E94A32B080F191FA00EB11E17
:1056400021960894E11CF11CC330D10549F7C6012D
:10565000F40165814AE050E00E94892C9501280FF1
:10566000391FC901DF91CF911F910F91FF90EF90EA
:10567000DF90CF90BF90AF909F908F9008959C0146
:10568000FB0180819181A281B381F901828393839F
:10569000A483B583C90108959C01FB0188EF93E0C1
:1056A000D9018D939C9380819181A281B381F9016D
:1056B00082839383A483B5830895FC0188EF93E0EC
:1056C0009183808312821382148215820895CF936E
:1056D000DF930E941F280E94F20CC2E2D9E20E94CE
:1056E0005D0C2097E1F30E942229F9CF0E94D1019D
:1056F0000895CF92DF92EF92FF920F931F93CF9373
:10570000DF937C016B018A01C0E0D0E00FC0D601BD
:105710006D916D01D701ED91FC910190F081E02D2B
:10572000C7010995C80FD91F015010400115110577
:1057300071F7CE01DF91CF911F910F91FF90EF9004
:10574000DF90CF900895DC01ED91FC910190F08104
:10575000E02D09950895EF92FF920F931F938C010E
:10576000DC01ED91FC910190F081E02D6DE0099557
:105770007C01D801ED91FC910190F081E02DC801F0
:105780006AE009959C012E0D3F1DC9011F910F91E3
:10579000FF90EF900895EF92FF920F931F937C017B
:1057A000DB01ED91FC910190F081E02DCB01B7017F
:1057B00009958C01C7010E94AB2B080F191FC80166
:1057C0001F910F91FF90EF900895CF93DF93DB012E
:1057D0000D900020E9F71197A61BB70BEC01E881AB
:1057E000F9810280F381E02DAD010995DF91CF9120
:1057F00008954F925F927F928F929F92AF92BF9245
:10580000CF92DF92EF92FF920F931F93DF93CF938C
:10581000CDB7DEB7A1970FB6F894DEBF0FBECDBFF0
:105820002C01742ECB01223008F42AE019A231E2B7
:10583000C32ED12CCC0EDD1E822E9924AA24BB248B
:10584000672D752FA50194010E94DB3279018A0131
:10585000C801B701A50194010E94BC32472D461B27
:105860000894C108D1084A3014F4405D01C0495C75
:10587000F6014083E114F1040105110521F07E2CAD
:105880005F2DC801DDCFC201B6010E94E52BA196B4
:105890000FB6F894DEBF0FBECDBFCF91DF911F9141
:1058A0000F91FF90EF90DF90CF90BF90AF909F90BF
:1058B0008F907F905F904F900895DC012115310506
:1058C00041F4ED91FC910190F081E02D642F099558
:1058D00008950E94F92B0895CF92DF92EF92FF92E4
:1058E0000F931F936C017B019A0100E010E0B80157
:1058F000A7010E945D2C8C01C6010E94AB2B080FF2
:10590000191FC8011F910F91FF90EF90DF90CF906A
:105910000895EF92FF920F931F939A01E62EFF24B2
:1059200000E010E0B801A7010E945D2C1F910F91CB
:10593000FF90EF9008950E94E52B0895EF92FF925B
:105940000F931F937C010E94E52B8C01C7010E94DD
:10595000AB2B080F191FC8011F910F91FF90EF90FB
:105960000895AF92BF92CF92DF92EF92FF920F9382
:105970001F93CF93DF935C016B01EE24FF24C0E003
:10598000D0E010C0D501ED91FC9100811181C601DC
:10599000BE010E94E22F682FC501F8010995E80EAB
:1059A000F91E2196F60184819581C817D90750F315
:1059B000C701DF91CF911F910F91FF90EF90DF9082
:1059C000CF90BF90AF900895EF92FF920F931F93E7
:1059D0007C010E94B12C8C01C7010E94AB2B9C0161
:1059E000200F311FC9011F910F91FF90EF90089573
:1059F000813041F0813018F08230D1F409C010922A
:105A00006E00089580916F008D7F80936F000895E0
:105A1000809170008D7F8093700081E08093B00052
:105A20008091B100887F84608093B1001092B300B0
:105A300008951F93182F8091A303811711F09FEFF2
:105A400006C0E8E3F3E094918FEF8093A303892FDE
:105A50000E94F82C812F60E00E9499281F910895E0
:105A60001F920F920FB60F9211242F933F934F93D3
:105A70005F936F937F938F939F93AF93BF93EF93B6
:105A8000FF938091790690917A06A0917B06B09160
:105A90007C060097A105B10551F1E0917D06F091DA
:105AA0007E06808190917F06892780838091790688
:105AB00090917A06A0917B06B0917C061816190683
:105AC0001A061B06C4F48091790690917A06A0917B
:105AD0007B06B0917C060197A109B10980937906F4
